S01000006C6162375F7074322E7372656339
S11300000C947A000C9499000C9499000C94990027
S11300100C9499000C9499000C9499000C949900F8
S11300200C9499000C94BF000C9499000C949900C2
S11300300C9499000C9499000C9499000C949900D8
S11300400C9499000C9499000C9499000C949900C8
S11300500C9499000C9499000C9499000C949900B8
S11300600C9499000C9499000C9499000C949900A8
S11300700C9499000C9499000C9499000C94990098
S11300800C9499000C9499000C9499000C94990088
S11300900C9499000C9499000C9499000C94990078
S11300A00C9499000C9499000C9499000C94990068
S11300B00C9499000C9412010C9499000C949900DE
S11300C00C9499000C9499000C9499000C94990048
S11300D00C9499000C9499000C9467020C94990068
S11300E00C9499000C9499000C9499000C94990028
S11300F00C94990011241FBECFEFCDBFDFE7DEBF04
S113010010E4A0E0B0E4E8EAF4E100E00BBF02C0D0
S113011007900D92A433B107D9F720E4A4E3B0E427
S113012001C01D92AA3AB207E1F70E94DE010C94C5
S1130130520A0C940000E0E4FAE081E0818389EF44
S113014090E080A791A781818061818380818D6007
S11301508083E0EEF5E086818860868380E1809389
S113016041040895E0E0FAE0118287EE93E086A36B
S113017097A381E0828780818960808308951F929C
S11301800F920FB60F9211248F939F93AF93BF9347
S11301908091064090910740892B49F08091064058
S11301A09091074001978093064090930740809177
S11301B0434090914440A0914540B09146408851BD
S11301C09C4FAF4FBF4F8093434090934440A093C4
S11301D04540B0934640809147408823B9F08091D0
S11301E047408150809347408091474081110EC021
S11301F08091280482FD03C081E08093494080916E
S1130200280485FD03C081E08093484081E0809309
S11302100B0ABF91AF919F918F910F900FBE0F90DA
S11302201F9018951F920F920FB60F9211240BB6C0
S11302300F920F931F932F933F934F935F936F935B
S11302407F938F939F93EF93FF938091290484FF6F
S11302506CC0E0E2F4E090E191874091434050911A
S1130260444060914540709146402091200A30916D
S1130270210A908594FF14C090913440911155C087
S1130280420F531F611D711D40933B4050933C40EE
S113029060933D4070933E4091E09093344045C05C
S11302A090913440992309F440C0420F531F611DBB
S11302B0711D409337405093384060933940709398
S11302C03A404091374050913840609139407091A4
S11302D03A4000913B4010913C4020913D40309188
S11302E03E40401B510B620B730B00913F40109139
S11302F040402091414030914240400F511F621FC5
S1130300731F40933F40509340406093414070932B
S1130310424020913540309136402F5F3F4F20932B
S11303203540309336401092344082FF0AC094E046
S11303309093290490914740911103C09AE09093BF
S1130340474085FF0AC080E280932904809147409A
S1130350811103C08AE080934740FF91EF919F9100
S11303608F917F916F915F914F913F912F911F9149
S11303700F910F900BBE0F900FBE0F901F9018950A
S1130380E0E2F4E081E0848B80E18283089588EDEB
S113039084BFE0E6F0E095E090A384BF83E080832F
S11303A08091650084FFFCCF0895E0E2F4E08BE0E7
S11303B0828B83E0858B84E2828308950E94C70147
S11303C00E94D5010E94C0010E949B000E94B200BD
S11303D020E030E040E855E260E070E083E00E9415
S11303E07904789481E19AE78093680A9093690A82
S11303F0C1E0F12C00E010E0D0E080910640909143
S11304000740892BE1F58091354090913640892B46
S1130410A1F060913F4070914040809141409091A3
S11304204240209135403091364040E050E00E94F7
S11304300305F22E032F142FD52F10923F40109254
S11304404040109241401092424010923540109228
S1130450364088EE93E08093064090930740DF9304
S11304601F930F93FF9286E190E49F938F930E94D2
S11304708A070F900F900F900F900F900F9080911C
S11304804940811105C080914840882309F4B5CFC3
S113049080914940882319F0CF5F109249408091A0
S11304A04840882339F0C23010F0C15001C0C1E087
S11304B0109248406C2F70E082E19AE70E94EF04AA
S11304C0615071096093680A7093690A96CF1F920C
S11304D00F920FB60F9211240BB60F922F933F93E6
S11304E04F935F936F937F938F939F93AF93BF9338
S11304F0EF93FF9383E090E00E944204FF91EF9119
S1130500BF91AF919F918F917F916F915F914F9127
S11305103F912F910F900BBE0F900FBE0F901F9025
S11305201895CF92DF92EF92FF92CF93DF936A01F7
S11305307B01811108C0F901108281E080930104DC
S1130540C0E0D8E029C0813039F4F90110828093E9
S11305504104C0E2D8E020C0823041F4F9011082A5
S113056081E08093A104C0E4D8E016C0833041F454
S113057081E0F901808380932104C0E6D8E00CC0B7
S1130580843041F4F901108281E080938104C0E851
S1130590D8E002C0C0E0D0E060E070E980ED93E014
S11305A0A70196010E940305288739878E81806CF4
S11305B08E83CE01DF91CF91FF90EF90DF90CF90AB
S11305C00895FC019581906295830895FC019581BD
S11305D09F7D95830895FC0162830895FC019481B5
S11305E095FFFDCF0895FC0194819923ECF7818157
S11305F082FF04C080818EEF9FEF089586FF04C0C0
S113060080818FEF9FEF0895808190E0089590910D
S1130610110181E0911101C080E00895AF92BF9271
S1130620CF92DF92EF92FF921F93CF93DF93182F15
S1130630EB01873069F42091A8403091A94047E04C
S113064050E061E070E08BE290E40E94480745C00E
S11306508A3019F48DE00E940E03AC84BD84BB2063
S1130660ACF56501E894D7F87601D6011296CD91E0
S1130670DC9113972196CF73D078DD2324F421974E
S1130680C06CDF6F2196F60184819581C817D90764
S113069029F4C5010E94070381111FC0D6011296D7
S11306A0ED91FC911397EC0DFD1D1683F7018481E8
S11306B09581C817D907D1F3D6011296CD93DC934F
S11306C013978D919C910E94E10207C0C5010E947D
S11306D0EE02612FC5010E94EB0280E090E0DF9101
S11306E0CF911F91FF90EF90DF90CF90BF90AF908C
S11306F00895EF92FF920F931F93CF93DF9320916E
S11307009A4030919B40232B09F0A0C08C01CAE48D
S1130710D0E4F80184859585992324F4FC01FF77BE
S1130720808191810E94F3028D3009F48AE08A303D
S113073059F48883B8010E940E038AE490E48093FC
S11307409A4090939B4082C0893009F480E290EEF5
S1130750980F9F3510F0803A98F0F0E4C939DF071C
S113076029F4B80187E00E940E03D3CF7E019FEFE6
S1130770E91AF90A8883B8010E940E03E701C9CF78
S1130780823119F130F4833009F473C0883049F0B0
S1130790C0CF873109F44EC08F3719F08531B9F1D4
S11307A0B8CFE0E4CA34DE0709F008F4B2CFB801E8
S11307B088E00E940E03B80180E20E940E03B80193
S11307C088E00E940E032197A4CFB8018DE00E9417
S11307D00E030F2EFAE4EF2EF0E4FF2EF02D06C0E8
S11307E0B801F70181917F010E940E03EC16FD060A
S11307F0B8F38FCFB80188E00E940E03B80180E2FD
S11308000E940E03B80188E00E940E032197F0E4D1
S1130810CA34DF0709F070F77CCFB80188E00E9482
S11308200E03B80180E20E940E03B80188E00E9422
S11308300E03219780E4CA34D80709F008F469CF7D
S1130840FE0131978081803241F763CFE0919A4075
S1130850F0919B40CF01019680939A4090939B40E6
S113086080818A3021F410929A4010929B4090E04B
S113087002C08FEF9FEFDF91CF911F910F91FF90F7
S1130880EF900895CF93DF93880F991FE0919E40D6
S1130890F0919F40E80FF91FC081D1812C813D81E7
S11308A08A819B812817390709F1EC81FD81EC0FBE
S11308B0FD1F6681888199810E94EB028C819D8154
S11308C001968F739078992324F40197806C9F6F1D
S11308D001968C839D832C813D818A819B8128177D
S11308E0390721F4888199810E94E602DF91CF9132
S11308F00895AF92BF92CF92DF92FF920F931F930E
S1130900CF93DF931F92CDB7DEB7F82E890121155F
S1130910310549F08EE0E8E0F0E4D90101900D9250
S11309208A95E1F70BC0E4EAF0E488E090E482837E
S1130930938380839183848395838C019E012F5FAD
S11309403F4F8F2D0E9491025C01F80184879587A7
S113095089818823C1F186E490E00E9439056C0105
S1130960FC011282138214821582A082B1826F2D3F
S113097070E080919C4090919D406817790794F0B5
S11309806F5F7F4F60939C4070939D40660F771F0D
S113099080919E4090919F400E945A0680939E4071
S11309A090939F40EF2DF0E0EE0FFF1F80919E404B
S11309B090919F40E80FF91FC082D1826894D7F8C4
S11309C0F801C486D586C8010F90DF91CF911F919D
S11309D00F91FF90DF90CF90BF90AF90089597FB59
S11309E0072E16F4009407D077FD09D00E94250540
S11309F007FC05D03EF4909581959F4F089570951E
S1130A0061957F4F0895A1E21A2EAA1BBB1BFD011D
S1130A100DC0AA1FBB1FEE1FFF1FA217B307E407D9
S1130A20F50720F0A21BB30BE40BF50B661F771F31
S1130A30881F991F1A9469F7609570958095909511
S1130A409B01AC01BD01CF010895AA1BBB1B51E161
S1130A5007C0AA1FBB1FA617B70710F0A61BB70B2A
S1130A60881F991F5A95A9F780959095BC01CD01CF
S1130A7008950F931F93CF93DF938230910510F461
S1130A8082E090E0E091A240F091A34020E030E0C9
S1130A90A0E0B0E0309719F14081518102811381C7
S1130AA048175907C8F08417950769F4109731F06F
S1130AB012960C93129713961C9327C00093A2408E
S1130AC01093A34022C02115310519F04217530792
S1130AD018F49A01BD01EF01DF01F801DBCF211504
S1130AE03105F9F0281B390B2430310580F48A8153
S1130AF09B816115710521F0FB018283938304C0FE
S1130B008093A2409093A340FE01329644C0FE011C
S1130B10E20FF31F81939193225031092883398383
S1130B203AC02091A0403091A140232B41F4209160
S1130B300240309103402093A0403093A140209183
S1130B400040309101402115310541F42DB73EB7E5
S1130B504091044050910540241B350BE091A04086
S1130B60F091A140E217F307A0F42E1B3F0B2817C6
S1130B70390778F0AC014E5F5F4F2417350748F012
S1130B804E0F5F1F4093A0405093A14081939193D7
S1130B9002C0E0E0F0E0CF01DF91CF911F910F910F
S1130BA00895CF93DF93009709F481C0FC01329735
S1130BB012821382A091A240B091A340109781F4B5
S1130BC020813181820F931F2091A0403091A14058
S1130BD02817390751F5E093A040F093A14067C06E
S1130BE0ED0120E030E0CE17DF0740F44A815B815D
S1130BF09E0141155105F1F0EA01F5CFC283D3837B
S1130C0040815181840F951FC817D90759F48881F1
S1130C109981840F951F0296808391838A819B8199
S1130C20828393832115310529F4E093A240F09344
S1130C30A3403DC0E901EA83FB8349915991C40F64
S1130C40D51FEC17FD0761F480819181840F951FF6
S1130C500296E90188839983828193818A839B83A5
S1130C60E0E0F0E012968D919C911397009719F0B3
S1130C70FD01DC01F7CF8D919C9111979D012E5FB1
S1130C803F4F820F931F2091A0403091A14028171D
S1130C90390769F4309729F41092A2401092A340C6
S1130CA002C012821382A093A040B093A140DF91AE
S1130CB0CF9108956F927F928F929F92AF92BF923D
S1130CC0CF92DF92EF92FF920F931F93CF93DF9314
S1130CD0009789F4CB01DF91CF911F910F91FF9081
S1130CE0EF90DF90CF90BF90AF909F908F907F90C8
S1130CF06F900C943905FC01E60FF71F9C012250FC
S1130D003109E217F30708F4A9C0EC01D9010D91E8
S1130D101C91119706171707B0F00530110508F458
S1130D209BC0C80104978617970708F495C0025022
S1130D301109061B170B019311936D937C93CF013B
S1130D400E94D10589C05B01A01AB10A4C01800E32
S1130D50911EA091A240B091A340612C712CE12C72
S1130D60F12C109709F446C08D919C911197A81508
S1130D70B905B1F56C0142E0C40ED11CCA14DB0400
S1130D8078F14C018A189B08640142E0C40ED11C1E
S1130D901296BC9012971396AC91B5E0CB16D10481
S1130DA040F0B282A38380829182D9016D937C93B7
S1130DB009C00E5F1F4F800F911FF901808391833B
S1130DC0EB2DFA2FE114F10431F0D7011296ED93D3
S1130DD0FC93139741C0E093A240F093A3403CC01E
S1130DE06816790608F43C017D0112960D90BC91B9
S1130DF0A02DB7CF8091A0409091A140881699066C
S1130E00E1F466167706C8F48091004090910140A1
S1130E10009741F48DB79EB740910440509105402E
S1130E20841B950BE817F907C8F4E093A040F093EE
S1130E30A140F901608371830FC0CB010E94390581
S1130E407C01009759F0A801BE010E943F07CE0122
S1130E500E94D105C70104C0CE0102C080E090E029
S1130E60DF91CF911F910F91FF90EF90DF90CF9082
S1130E70BF90AF909F908F907F906F900895FB01EB
S1130E80DC0102C001900D9241505040D8F7089502
S1130E908F929F92AF92BF92CF92DF92EF92FF9286
S1130EA00F931F93CF93DF935B014A017901D9011B
S1130EB013962C9121FF1DC0C0E0D0E0C815D905C0
S1130EC0D9F08C016C01CA0CDB1CC8010C151D0582
S1130ED071F00F5F1F4FD7011896ED91FC91199790
S1130EE0B701DC018C910995892B79F305C0219612
S1130EF0E5CF80E090E001C0CE01DF91CF911F915A
S1130F000F91FF90EF90DF90CF90BF90AF909F90A4
S1130F108F900895CF93DF93CDB7DEB7AE014B5FCB
S1130F205F4FFA0161917191AF018091A640909158
S1130F30A7400E949E07DF91CF9108952F923F9280
S1130F404F925F926F927F928F929F92AF92BF92D5
S1130F50CF92DF92EF92FF920F931F93CF93DF9381
S1130F60CDB7DEB72B97CDBFDEBF6C017B018A0105
S1130F70FC0116821782838181FFCCC1CE010196C8
S1130F803C01F6019381F70193FD859193FF8191D3
S1130F907F01882309F4BAC1853239F493FD859120
S1130FA093FF81917F01853229F4B60190E00E947C
S1130FB0B809E7CF912C212C312CFFE1F315D8F09F
S1130FC08B3279F038F4803279F08332A1F4232D16
S1130FD020611DC08D3261F0803369F4232D2160BE
S1130FE016C0832D8260382EE32DE4603E2E2AC085
S1130FF0F32DF8601DC037FC2DC020ED280F2A30DA
S113100040F08E32B9F436FC81C1232D2064322E97
S113101019C036FE06C08AE0989E200D1124922E37
S113102011C0EAE02E9E200D1124222EF32DF06231
S11310303F2E08C08C3621F4832D8068382E02C0E0
S1131040883641F4F70193FD859193FF81917F01E7
S11310508111B3CF982F9F7D9554933028F40C5F62
S11310601F4F9FE399830DC0833631F0833771F0AE
S1131070833509F059C021C0F801808189830E5F4E
S11310801F4F88248394912C530113C02801F2E04C
S11310904F0E511CF801A080B18036FE03C0692DAB
S11310A070E002C06FEF7FEFC5010E94AD094C01F3
S11310B08201F32DFF773F2E16C0280122E0420E55
S11310C0511CF801A080B18036FE03C0692D70E088
S11310D002C06FEF7FEFC5010E94A2094C01F32DFE
S11310E0F0683F2E820133FC1BC0822D90E08816ED
S11310F09906B0F4B60180E290E00E94B8092A94FF
S1131100F4CFF50137FC859137FE81915F01B6017B
S113111090E00E94B80921102A9421E0821A9108D3
S11311208114910471F7E8C0843611F0893641F5D1
S1131130F80137FE07C060817181828193810C5F61
S11311401F4F08C060817181072E000C880B990B1A
S11311500E5F1F4FF32DFF763F2E97FF09C090952A
S11311608095709561957F4F8F4F9F4FF0683F2E0C
S11311702AE030E0A3010E94F409882E861845C0B5
S1131180853731F4232D2F7EB22E2AE030E025C09E
S1131190932D997FB92E8F36C1F018F4883579F0E4
S11311A0B5C0803719F0883721F0B0C0E92FE0616D
S11311B0BE2EB4FE0DC0FB2DF460BF2E09C034FE5C
S11311C00AC0292F2660B22E06C028E030E005C0F0
S11311D020E130E002C020E132E0F801B7FE07C0B0
S11311E060817181828193810C5F1F4F06C0608191
S11311F0718180E090E00E5F1F4FA3010E94F4090B
S1131200882E8618FB2DFF773F2E36FE0DC0232D2A
S11312102E7FA22E891458F434FE0BC032FC09C070
S1131220832D8E7EA82E05C0B82CA32C03C0B82C09
S113123001C0B92CA4FE0FC0FE01E80DF11D808190
S1131240803321F49A2D997EA92E09C0A2FE06C0EE
S1131250B394B39404C08A2D867809F0B394A3FCA4
S113126011C0A0FE06C0B21488F4280C922C9B185E
S11312700EC0B21460F4B60180E290E00E94B80996
S1131280B394F7CFB21418F42B1802C0982C212C65
S1131290A4FE10C0B60180E390E00E94B809A2FE4B
S11312A017C0A1FC03C088E790E002C088E590E085
S11312B0B6010CC08A2D867859F0A1FE02C08BE2DB
S11312C001C080E2A7FC8DE2B60190E00E94B8095B
S11312D0891438F4B60180E390E00E94B8099A9426
S11312E0F7CF8A94F301E80DF11D8081B60190E0F7
S11312F00E94B8098110F5CF222009F442CEB6012C
S113130080E290E00E94B8092A94F6CFF601868123
S1131310978102C08FEF9FEF2B96CDBFDEBFDF9189
S1131320CF911F910F91FF90EF90DF90CF90BF90DE
S1131330AF909F908F907F906F905F904F903F9071
S11313402F900895FC010590615070400110D8F76A
S1131350809590958E0F9F1F0895FC0161507040F9
S113136001900110D8F7809590958E0F9F1F0895D6
S11313700F931F93CF93DF93FB01238121FD03C0C0
S11313808FEF9FEF2CC022FF16C046815781248126
S113139035814217530744F4A081B1819D012F5F29
S11313A03F4F208331838C93268137812F5F3F4FBA
S11313B02683378314C08B01EC01FB010084F18583
S11313C0E02D0995892BE1F6D80116968D919C9113
S11313D01797019616968D939C931797CE01DF91DC
S11313E0CF911F910F910895FA01AA27283051F146
S11313F0203181F1E8946F936E7F6E5F7F4F8F4F42
S11314009F4FAF4FB1E03ED0B4E03CD0670F781FA0
S1131410891F9A1FA11D680F791F8A1F911DA11D85
S11314206A0F711D811D911DA11D20D009F46894BE
S11314303F912AE0269F11243019305D3193DEF666
S1131440CF010895462F4770405D4193B3E00FD01C
S1131450C9F7F6CF462F4F70405D4A3318F0495D07
S113146031FD4052419302D0A9F7EACFB4E0A695EA
S11314709795879577956795BA95C9F7009761050C
S1131480710508959B01AC010A2E06945795479562
S113149037952795BA95C9F7620F731F841F951F57
S10B14A0A01D0895F894FFCF8C
S11314A80000AA402000E803000000030000000038
S11314B80E037903000054686520617665726167DC
S11314C86520697320256C75200A002A72696E6785
S10714D82A0A0000D8
S9030000FC
