:100000000C947A000C9484000C9484000C9484006A
:100010000C9484000C9484000C9484000C94840050
:100020000C9484000C9484000C9484000C94840040
:100030000C9484000C9484000C9484000C94840030
:100040000C9484000C9484000C9484000C94840020
:100050000C9484000C9484000C9484000C94840010
:100060000C9484000C9484000C9484000C94840000
:100070000C9484000C9484000C9484000C948400F0
:100080000C9484000C9484000C9484000C948400E0
:100090000C9484000C9484000C9484000C948400D0
:1000A0000C9484000C9484000C9484000C948400C0
:1000B0000C9484000C9484000C9484000C948400B0
:1000C0000C9484000C9484000C9484000C948400A0
:1000D0000C9484000C9484000C9484000C94840090
:1000E0000C9484000C9484000C9484000C94840080
:1000F0000C94840011241FBECFEFCDBFDFE7DEBF1D
:100100000E9486000C94EA000C9400008FEF8CB9DA
:100110001DB830E040E050E028C02DB181E090E013
:10012000032E02C0880F991F0A94E2F7922F982B92
:100130009DB92FE36DE073E0215060407040E1F71E
:1001400000C000009DB1809589238DB98FE39DE0AB
:1001500023E0815090402040E1F700C000004C5067
:100160005E4F03C030E040E050E0403D67E056079E
:10017000A1F640E050E024C02DB181E090E0032ED4
:1001800002C0880F991F0A94E2F7922F982B9DB90D
:100190007FE926E861E0715020406040E1F700C04F
:1001A00000009DB1809589238DB97FE986E891E0B3
:1001B000715080409040E1F700C0000046505F4F12
:1001C000403D27E05207C1F6373061F23F5F40E023
:0801D00050E0CBCFF894FFCF03
:00000001FF
