:100000000C947A000C9484000C9484000C9484006A
:100010000C9484000C9484000C9484000C94840050
:100020000C9484000C9484000C9484000C94840040
:100030000C9484000C9484000C9484000C94840030
:100040000C9484000C9484000C9484000C94840020
:100050000C9484000C9484000C9484000C94840010
:100060000C9484000C9484000C9484000C94840000
:100070000C9484000C9484000C9484000C948400F0
:100080000C9484000C9484000C9484000C948400E0
:100090000C9484000C9484000C9484000C948400D0
:1000A0000C9484000C9484000C9484000C948400C0
:1000B0000C9484000C9484000C9484000C948400B0
:1000C0000C9484000C9484000C9484000C948400A0
:1000D0000C9484000C9484000C9484000C94840090
:1000E0000C9484000C9484000C9484000C94840080
:1000F0000C94840011241FBECFEFCDBFDFE7DEBF1D
:100100000E94AC000C9487020C940000CF92DF9206
:10011000EF92FF92CF93DF936B017C01C0E0D0E0C0
:1001200007C087EE93E00197F1F700C00000219629
:10013000BE010D2E000C880B990B0E94D701A70160
:1001400096010E945E01882364F3DF91CF91FF90B6
:10015000EF90DF90CF900895E0E2F4E0828988602C
:10016000828B8BED82838FEF8CB980E28DB9222454
:100170002A94322C0F2EF5E0AF2EB12CF02D812CCD
:10018000912CE12CF12C00E010E0CC24C394D12C74
:100190008091280482FD13C08FE097E20197F1F768
:1001A00000C000008091280482FD0BC001151105DC
:1001B00041F49FEFC91AD90A01E010E002C000E043
:1001C00010E08091280485FD18C08FE097E2019728
:1001D000F1F700C000008091280485FD14C0E114EF
:1001E000F10489F491E0C916D10451F081E0C81AF4
:1001F000D108EE24E394F12C06C0E12CF12C03C0CD
:10020000EE24E394F12C0115110539F1E114F10408
:1002100021F18FE097E20197F1F700C0000001158E
:10022000110519F1E114F10401F181149104E9F4CB
:10023000A114B10429F097E0A916B10441F404C057
:1002400022242394312C03C022242A94322CA20C81
:10025000B31C88248394912C08C00115110529F43E
:10026000E114F10411F4812C912C8DB1C1E0D0E0A6
:100270000A2C02C0CC0FDD1F0A94E2F78C2B8DB93B
:10028000B601660F771F072E000C880B990B0E9492
:10029000D7019B01AC0160E070E08AE794E40E9422
:1002A00063012B013C010E9486008DB1C095C823DB
:1002B000CDB9C301B2010E9486006ACF0E9412022A
:1002C00008F481E008950E9477010C944D020E9489
:1002D000460258F00E943F0240F029F45F3F29F0A7
:1002E0000C94360251110C9481020C943C020E9431
:1002F0005E0268F39923B1F3552391F3951B550BD7
:10030000BB27AA2762177307840738F09F5F5F4FE8
:10031000220F331F441FAA1FA9F335D00E2E3AF027
:10032000E0E832D091505040E695001CCAF72BD03F
:10033000FE2F29D0660F771F881FBB1F2617370790
:100340004807AB07B0E809F0BB0B802DBF01FF27C2
:1003500093585F4F3AF09E3F510578F00C94360267
:100360000C9481025F3FE4F3983ED4F38695779531
:100370006795B795F7959F5FC9F7880F911D96957B
:10038000879597F90895E1E0660F771F881FBB1FD7
:10039000621773078407BA0720F0621B730B840B84
:1003A000BA0BEE1F88F7E0950895E89409C097FB13
:1003B0003EF490958095709561957F4F8F4F9F4F3C
:1003C0009923A9F0F92F96E9BB279395F695879580
:1003D00077956795B795F111F8CFFAF4BB0F11F443
:1003E00060FF1BC06F5F7F4F8F4F9F4F16C08823EA
:1003F00011F096E911C0772321F09EE8872F762F20
:1004000005C0662371F096E8862F70E060E02AF060
:100410009A95660F771F881FDAF7880F969587954C
:1004200097F90895990F0008550FAA0BE0E8FEEF21
:1004300016161706E807F907C0F012161306E407A8
:10044000F50798F0621B730B840B950B39F40A26A1
:1004500061F0232B242B252B21F408950A2609F47F
:10046000A140A6958FEF811D811D089597F99F6783
:1004700080E870E060E008959FEF80EC089500242C
:100480000A941616170618060906089500240A94F9
:1004900012161306140605060895092E0394000C7F
:1004A00011F4882352F0BB0F40F4BF2B11F460FF0E
:1004B00004C06F5F7F4F8F4F9F4F089557FD905837
:1004C000440F551F59F05F3F71F04795880F97FB18
:1004D000991F61F09F3F79F08795089512161306D2
:1004E0001406551FF2CF4695F1DF08C01616170601
:1004F0001806991FF1CF8695710561050894089536
:10050000E894BB2766277727CB0197F90895F894DD
:02051000FFCF1B
:00000001FF
