:100000000C947A000C9499000C9499000C9499002B
:100010000C9499000C9499000C9499000C949900FC
:100020000C9499000C9499000C9499000C949900EC
:100030000C9499000C9499000C9499000C949900DC
:100040000C9499000C9499000C9499000C949900CC
:100050000C9499000C9499000C9499000C949900BC
:100060000C9499000C9499000C9499000C949900AC
:100070000C9499000C9499000C9499000C9499009C
:100080000C9499000C9499000C9499000C9499008C
:100090000C9499000C9499000C9499000C9499007C
:1000A0000C9499000C9499000C9499000C9499006C
:1000B0000C9499000C9499000C9499000C9499005C
:1000C0000C9499000C9499000C9499000C9499004C
:1000D0000C9499000C946E010C9481010C9499007D
:1000E0000C9499000C9499000C9499000C9499002C
:1000F0000C94990011241FBECFEFCDBFDFE7DEBF08
:1001000010E4A0E0B0E4E8E0F4E100E00BBF02C0DE
:1001100007900D92A83FB107D9F721E4A8EFB0E40A
:1001200001C01D92AA35B207E1F70E94CF000C94DE
:10013000020A0C94000088ED84BFE0E6F0E095E050
:1001400090A384BF83E080838091650084FFFCCF0F
:100150000895CF92DF92EF92FF92CF93DF936B01DE
:100160007C01C0E0D0E007C08FE99FE00197F1F784
:1001700000C000002196BE010D2E000C880B990BCB
:100180000E941004A70196010E940904882364F3C9
:10019000DF91CF91FF90EF90DF90CF9008950E9474
:1001A0009B0020E030E040E855E260E070E083E052
:1001B0000E94930384E190E40E941E07E0E6F8E0C9
:1001C0008581806885838FEF809361041092640439
:1001D000789412E002E0F12C80914E41813009F0D8
:1001E0005CC0F89480914E41813011F410924E41E0
:1001F0007894F11020C080914F41863649F080916B
:100200004F41803729F08CE490E40E941E0745C0DE
:1002100080914F41863639F485E890E40E941E07AC
:10022000FF24F3943AC08BEA90E40E941E0768947E
:10023000FF24F1F832C081E0F8121AC080914F41DA
:10024000813320F080914F418A3348F08AEC90E46A
:100250009F938F930E940A070F900F901EC00091EA
:100260004F41005384E190E40E941E07F12C15C019
:1002700080914F41883348F08DED90E49F938F93A8
:100280000E940A070F900F9008C010914F41105321
:1002900084E190E40E941E07F12C81E090E0012EA1
:1002A00002C0880F991F0A94E2F7C4E6D4E088835D
:1002B000602F70E084EF91E00E946F04072E000C25
:1002C000880B990B0E9410044B015C010E94A9004D
:1002D0001882C501B4010E94A9007ECF1F920F921F
:1002E0000FB60F9211248F9381E080934E4180913D
:1002F000600880934F418F910F900FBE0F901F9019
:1003000018951F920F920FB60F9211240BB60F92F1
:100310002F933F934F935F936F937F938F939F930D
:10032000AF93BF93EF93FF9383E090E00E945C0351
:10033000FF91EF91BF91AF919F918F917F916F91BD
:100340005F914F913F912F910F900BBE0F900FBE79
:100350000F901F901895CF92DF92EF92FF92CF935C
:10036000DF936A017B01811108C0F901108281E0ED
:1003700080930104C0E0D8E029C0813039F4F9014C
:10038000108280934104C0E2D8E020C0823041F462
:10039000F901108281E08093A104C0E4D8E016C086
:1003A000833041F481E0F901808380932104C0E629
:1003B000D8E00CC0843041F4F901108281E08093D0
:1003C0008104C0E8D8E002C0C0E0D0E060E070E99D
:1003D00080ED93E0A70196010E9483042887398766
:1003E0008E81806C8E83CE01DF91CF91FF90EF9054
:1003F000DF90CF900895FC019581906295830895D8
:10040000FC0195819F7D95830895FC016283089589
:10041000FC01948195FFFDCF0895FC0194819923FF
:10042000ECF7818182FF04C080818EEF9FEF0895F9
:1004300086FF04C080818FEF9FEF0895808190E058
:1004400008959091110181E0911101C080E008951B
:10045000AF92BF92CF92DF92EF92FF921F93CF9312
:10046000DF93182FEB01873069F4209158413091C8
:10047000594147E050E061E070E08FEE90E40E9467
:10048000C80645C08A3019F48DE00E942802AC8469
:10049000BD84BB20ACF56501E894D7F87601D601A0
:1004A0001296CD91DC9113972196CF73D078DD23EE
:1004B00024F42197C06CDF6F2196F6018481958129
:1004C000C817D90729F4C5010E94210281111FC054
:1004D000D6011296ED91FC911397EC0DFD1D16833C
:1004E000F70184819581C817D907D1F3D6011296F7
:1004F000CD93DC9313978D919C910E94FB0107C0D3
:10050000C5010E940802612FC5010E94050280E01A
:1005100090E0DF91CF911F91FF90EF90DF90CF900F
:10052000BF90AF900895EF92FF920F931F93CF93D8
:10053000DF932091484130914941232B09F0A0C01D
:100540008C01C8EFD0E4F80184859585992324F4C3
:10055000FC01FF77808191810E940D028D3009F4AA
:100560008AE08A3059F48883B8010E94280288EF13
:1005700090E4809348419093494182C0893009F4C6
:1005800080E290EE980F9F3510F0803A98F0F1E4F9
:10059000C734DF0729F4B80187E00E942802D3CFCF
:1005A0007E019FEFE91AF90A8883B8010E942802A8
:1005B000E701C9CF823119F130F4833009F473C0F7
:1005C000883049F0C0CF873109F44EC08F3719F019
:1005D0008531B9F1B8CFE0E4C83FDE0709F008F48F
:1005E000B2CFB80188E00E942802B80180E20E94E0
:1005F0002802B80188E00E9428022197A4CFB80100
:100600008DE00E9428020F2EF8EFEF2EF0E4FF2E6F
:10061000F02D06C0B801F70181917F010E942802E8
:10062000EC16FD06B8F38FCFB80188E00E942802CF
:10063000B80180E20E942802B80188E00E942802E6
:100640002197F0E4C83FDF0709F070F77CCFB801CD
:1006500088E00E942802B80180E20E942802B801C6
:1006600088E00E942802219780E4C83FD80709F05B
:1006700008F469CFFE0131978081803241F763CF62
:10068000E0914841F0914941CF0101968093484162
:100690009093494180818A3021F410924841109210
:1006A000494190E002C08FEF9FEFDF91CF911F9102
:1006B0000F91FF90EF900895CF93DF93880F991FCC
:1006C000E0914C41F0914D41E80FF91FC081D1817B
:1006D0002C813D818A819B812817390709F1EC81A2
:1006E000FD81EC0FFD1F6681888199810E940502C2
:1006F0008C819D8101968F739078992324F40197C2
:10070000806C9F6F01968C839D832C813D818A81B3
:100710009B812817390721F4888199810E94000262
:10072000DF91CF910895AF92BF92CF92DF92FF9267
:100730000F931F93CF93DF931F92CDB7DEB7F82EA1
:1007400089012115310549F08EE0E6E0F0E4D90198
:1007500001900D928A95E1F70BC0E4E5F1E486E0A3
:1007600090E48283938380839183848395838C0137
:100770009E012F5F3F4F8F2D0E94AB015C01F8015E
:100780008487958789818823C1F186E490E00E945F
:10079000B9046C01FC011282138214821582A082BA
:1007A000B1826F2D70E080914A4190914B41681762
:1007B000790794F06F5F7F4F60934A4170934B418C
:1007C000660F771F80914C4190914D410E94DA0550
:1007D00080934C4190934D41EF2DF0E0EE0FFF1FC1
:1007E00080914C4190914D41E80FF91FC082D18218
:1007F0006894D7F8F801C486D586C8010F90DF91B8
:10080000CF911F910F91FF90DF90CF90BF90AF904D
:1008100008950E944B0408F481E00895E89409C00B
:1008200097FB3EF490958095709561957F4F8F4F23
:100830009F4F9923A9F0F92F96E9BB279395F69539
:10084000879577956795B795F111F8CFFAF4BB0FB7
:1008500011F460FF1BC06F5F7F4F8F4F9F4F16C01B
:10086000882311F096E911C0772321F09EE8872FA5
:10087000762F05C0662371F096E8862F70E060E061
:100880002AF09A95660F771F881FDAF7880F9695DA
:10089000879597F90895990F0008550FAA0BE0E87E
:1008A000FEEF16161706E807F907C0F01216130632
:1008B000E407F50798F0621B730B840B950B39F472
:1008C0000A2661F0232B242B252B21F408950A26D8
:1008D00009F4A140A6958FEF811D811D089597FB16
:1008E000072E16F4009407D077FD09D00E94A504C6
:1008F00007FC05D03EF4909581959F4F0895709523
:1009000061957F4F0895A1E21A2EAA1BBB1BFD0122
:100910000DC0AA1FBB1FEE1FFF1FA217B307E407DE
:10092000F50720F0A21BB30BE40BF50B661F771F36
:10093000881F991F1A9469F7609570958095909516
:100940009B01AC01BD01CF010895AA1BBB1B51E166
:1009500007C0AA1FBB1FA617B70710F0A61BB70B2F
:10096000881F991F5A95A9F780959095BC01CD01D4
:1009700008950F931F93CF93DF938230910510F466
:1009800082E090E0E0915241F091534120E030E06C
:10099000A0E0B0E0309719F14081518102811381CC
:1009A00048175907C8F08417950769F4109731F074
:1009B00012960C93129713961C9327C000935241E2
:1009C0001093534122C02115310519F042175307E6
:1009D00018F49A01BD01EF01DF01F801DBCF211509
:1009E0003105F9F0281B390B2430310580F48A8158
:1009F0009B816115710521F0FB018283938304C003
:100A00008093524190935341FE01329644C0FE01BF
:100A1000E20FF31F81939193225031092883398388
:100A20003AC02091504130915141232B41F4209103
:100A30000240309103402093504130935141209126
:100A40000040309101402115310541F42DB73EB7EA
:100A50004091044050910540241B350BE0915041DA
:100A6000F0915141E217F307A0F42E1B3F0B28171A
:100A7000390778F0AC014E5F5F4F2417350748F017
:100A80004E0F5F1F4093504150935141819391937A
:100A900002C0E0E0F0E0CF01DF91CF911F910F9114
:100AA0000895CF93DF93009709F481C0FC0132973A
:100AB00012821382A0915241B0915341109781F458
:100AC00020813181820F931F2091504130915141FB
:100AD0002817390751F5E0935041F093514167C011
:100AE000ED0120E030E0CE17DF0740F44A815B8162
:100AF0009E0141155105F1F0EA01F5CFC283D38380
:100B000040815181840F951FC817D90759F48881F6
:100B10009981840F951F0296808391838A819B819E
:100B2000828393832115310529F4E0935241F09398
:100B300053413DC0E901EA83FB8349915991C40FB8
:100B4000D51FEC17FD0761F480819181840F951FFB
:100B50000296E90188839983828193818A839B83AA
:100B6000E0E0F0E012968D919C911397009719F0B8
:100B7000FD01DC01F7CF8D919C9111979D012E5FB6
:100B80003F4F820F931F20915041309151412817C0
:100B9000390769F4309729F4109252411092534169
:100BA00002C012821382A0935041B0935141DF9151
:100BB000CF9108956F927F928F929F92AF92BF9242
:100BC000CF92DF92EF92FF920F931F93CF93DF9319
:100BD000009789F4CB01DF91CF911F910F91FF9086
:100BE000EF90DF90CF90BF90AF909F908F907F90CD
:100BF0006F900C94B904FC01E60FF71F9C01225082
:100C00003109E217F30708F4A9C0EC01D9010D91ED
:100C10001C91119706171707B0F00530110508F45D
:100C20009BC0C80104978617970708F495C0025027
:100C30001109061B170B019311936D937C93CF0140
:100C40000E94510589C05B01A01AB10A4C01800EB7
:100C5000911EA0915241B0915341612C712CE12C15
:100C6000F12C109709F446C08D919C911197A8150D
:100C7000B905B1F56C0142E0C40ED11CCA14DB0405
:100C800078F14C018A189B08640142E0C40ED11C23
:100C90001296BC9012971396AC91B5E0CB16D10486
:100CA00040F0B282A38380829182D9016D937C93BC
:100CB00009C00E5F1F4F800F911FF9018083918340
:100CC000EB2DFA2FE114F10431F0D7011296ED93D8
:100CD000FC93139741C0E0935241F09353413CC0C1
:100CE0006816790608F43C017D0112960D90BC91BE
:100CF000A02DB7CF8091504190915141881699060F
:100D0000E1F466167706C8F48091004090910140A6
:100D1000009741F48DB79EB7409104405091054033
:100D2000841B950BE817F907C8F4E0935041F09342
:100D30005141F901608371830FC0CB010E94B90456
:100D40007C01009759F0A801BE010E94BF06CE01A8
:100D50000E945105C70104C0CE0102C080E090E0AE
:100D6000DF91CF911F910F91FF90EF90DF90CF9087
:100D7000BF90AF909F908F907F906F900895FB01F0
:100D8000DC0102C001900D9241505040D8F7089507
:100D90008F929F92AF92BF92CF92DF92EF92FF928B
:100DA0000F931F93CF93DF935B014A017901D90120
:100DB00013962C9121FF1DC0C0E0D0E0C815D905C5
:100DC000D9F08C016C01CA0CDB1CC8010C151D0587
:100DD00071F00F5F1F4FD7011896ED91FC91199795
:100DE000B701DC018C910995892B79F305C0219617
:100DF000E5CF80E090E001C0CE01DF91CF911F915F
:100E00000F91FF90EF90DF90CF90BF90AF909F90A9
:100E10008F900895CF93DF93CDB7DEB7AE014B5FD0
:100E20005F4FFA0161917191AF01809156419091AC
:100E300057410E944E07DF91CF9108950F931F9362
:100E4000CF93DF93E0915641F0915741238121FFE9
:100E50001BC08C01D0E0C0E0F80181918F0160914E
:100E6000564170915741DB011896ED91FC9119970D
:100E7000882331F00995892B79F3DFEFCFEFECCFA1
:100E80008AE00995892B19F08FEF9FEF02C08D2F13
:100E90009C2FDF91CF911F910F9108952F923F9238
:100EA0004F925F926F927F928F929F92AF92BF927A
:100EB000CF92DF92EF92FF920F931F93CF93DF9326
:100EC000CDB7DEB72B97CDBFDEBF6C017B018A01AA
:100ED000FC0116821782838181FFCCC1CE0101966D
:100EE0003C01F6019381F70193FD859193FF819178
:100EF0007F01882309F4BAC1853239F493FD8591C5
:100F000093FF81917F01853229F4B60190E00E9420
:100F10006809E7CF912C212C312CFFE1F315D8F093
:100F20008B3279F038F4803279F08332A1F4232DBA
:100F300020611DC08D3261F0803369F4232D216062
:100F400016C0832D8260382EE32DE4603E2E2AC029
:100F5000F32DF8601DC037FC2DC020ED280F2A307E
:100F600040F08E32B9F436FC81C1232D2064322E3C
:100F700019C036FE06C08AE0989E200D1124922EDC
:100F800011C0EAE02E9E200D1124222EF32DF062D6
:100F90003F2E08C08C3621F4832D8068382E02C085
:100FA000883641F4F70193FD859193FF81917F018C
:100FB0008111B3CF982F9F7D9554933028F40C5F07
:100FC0001F4F9FE399830DC0833631F0833771F053
:100FD000833509F059C021C0F801808189830E5FF3
:100FE0001F4F88248394912C530113C02801F2E0F1
:100FF0004F0E511CF801A080B18036FE03C0692D50
:1010000070E002C06FEF7FEFC5010E945D094C01E7
:101010008201F32DFF773F2E16C0280122E0420EF9
:10102000511CF801A080B18036FE03C0692D70E02C
:1010300002C06FEF7FEFC5010E9452094C01F32DF2
:10104000F0683F2E820133FC1BC0822D90E0881691
:101050009906B0F4B60180E290E00E9468092A94F3
:10106000F4CFF50137FC859137FE81915F01B60120
:1010700090E00E94680921102A9421E0821A9108C8
:101080008114910471F7E8C0843611F0893641F576
:10109000F80137FE07C060817181828193810C5F06
:1010A0001F4F08C060817181072E000C880B990BBF
:1010B0000E5F1F4FF32DFF763F2E97FF09C09095CF
:1010C0008095709561957F4F8F4F9F4FF0683F2EB1
:1010D0002AE030E0A3010E94A409882E861845C0AA
:1010E000853731F4232D2F7EB22E2AE030E025C043
:1010F000932D997FB92E8F36C1F018F4883579F089
:10110000B5C0803719F0883721F0B0C0E92FE06111
:10111000BE2EB4FE0DC0FB2DF460BF2E09C034FE00
:101120000AC0292F2660B22E06C028E030E005C094
:1011300020E130E002C020E132E0F801B7FE07C054
:1011400060817181828193810C5F1F4F06C0608135
:10115000718180E090E00E5F1F4FA3010E94A409FF
:10116000882E8618FB2DFF773F2E36FE0DC0232DCF
:101170002E7FA22E891458F434FE0BC032FC09C015
:10118000832D8E7EA82E05C0B82CA32C03C0B82CAE
:1011900001C0B92CA4FE0FC0FE01E80DF11D808135
:1011A000803321F49A2D997EA92E09C0A2FE06C093
:1011B000B394B39404C08A2D867809F0B394A3FC49
:1011C00011C0A0FE06C0B21488F4280C922C9B1803
:1011D0000EC0B21460F4B60180E290E00E9468098B
:1011E000B394F7CFB21418F42B1802C0982C212C0A
:1011F000A4FE10C0B60180E390E00E946809A2FE40
:1012000017C0A1FC03C088E790E002C088E590E029
:10121000B6010CC08A2D867859F0A1FE02C08BE27F
:1012200001C080E2A7FC8DE2B60190E00E9468094F
:10123000891438F4B60180E390E00E9468099A941A
:10124000F7CF8A94F301E80DF11D8081B60190E09B
:101250000E9468098110F5CF222009F442CEB60120
:1012600080E290E00E9468092A94F6CFF601868118
:10127000978102C08FEF9FEF2B96CDBFDEBFDF912E
:10128000CF911F910F91FF90EF90DF90CF90BF9083
:10129000AF909F908F907F906F905F904F903F9016
:1012A0002F900895FC010590615070400110D8F70F
:1012B000809590958E0F9F1F0895FC01615070409E
:1012C00001900110D8F7809590958E0F9F1F08957B
:1012D0000F931F93CF93DF93FB01238121FD03C065
:1012E0008FEF9FEF2CC022FF16C0468157812481CB
:1012F00035814217530744F4A081B1819D012F5FCE
:101300003F4F208331838C93268137812F5F3F4F5E
:101310002683378314C08B01EC01FB010084F18527
:10132000E02D0995892BE1F6D80116968D919C91B7
:101330001797019616968D939C931797CE01DF9180
:10134000CF911F910F910895FA01AA27283051F1EA
:10135000203181F1E8946F936E7F6E5F7F4F8F4FE6
:101360009F4FAF4FB1E03ED0B4E03CD0670F781F45
:10137000891F9A1FA11D680F791F8A1F911DA11D2A
:101380006A0F711D811D911DA11D20D009F4689463
:101390003F912AE0269F11243019305D3193DEF60B
:1013A000CF010895462F4770405D4193B3E00FD0C1
:1013B000C9F7F6CF462F4F70405D4A3318F0495DAC
:1013C00031FD4052419302D0A9F7EACFB4E0A6958F
:1013D0009795879577956795BA95C9F700976105B1
:1013E000710508959B01AC010A2E06945795479507
:1013F00037952795BA95C9F7620F731F841F951FFC
:08140000A01D0895F894FFCF30
:1014080000005A41200000000003000000002802EC
:1014180093020000446F20796F752077616E742005
:10142800746F206368616E676520746865206672F2
:10143800657175656E6379206F7220706F7369745A
:10144800696F6E2028462F50293F2000496E76612B
:101458006C696420696E7075742E20506C656173B8
:1014680065206368616E67652074686520667265CB
:101478007175656E6379206F7220706F7369746916
:101488006F6E2E2000456E7465722061206672654D
:101498007175656E6379206265747765656E203154
:1014A8002D31302028487A293A2000456E7465721B
:1014B800206120706F736974696F6E20626574773C
:1014C80065656E20302D373A2000496E76616C696B
:1014D80064206672657175656E63792E00496E7653
:1014E800616C696420706F736974696F6E2E002A6D
:0814F80072696E672A0A000008
:00000001FF
