:100000000C9480000C949F000C949F000C949F0013
:100010000C949F000C949F000C949F000C949F00E4
:100020000C949F000C949F000C949F000C949F00D4
:100030000C949F000C949F000C949F000C949F00C4
:100040000C949F000C949F000C949F000C949F00B4
:100050000C949F000C949F000C949F000C949F00A4
:100060000C949F000C949F000C949F000C949F0094
:100070000C949F000C949F000C949F000C949F0084
:100080000C949F000C949F000C949F000C949F0074
:100090000C949F000C949F000C949F000C949F0064
:1000A0000C949F000C949F000C949F000C949F0054
:1000B0000C949F000C949F000C949F000C949F0044
:1000C0000C949F000C949F000C949F000C949F0034
:1000D0000C949F000C949F000C949F000C949F0024
:1000E0000C949F000C949F000C949F000C949F0014
:1000F0000C949F006364696E6F70737578585B0031
:1001000011241FBECFEFCDBFDFE7DEBF11E4A0E0BB
:10011000B0E4EAEBF7E100E00BBF02C007900D92FC
:10012000A635B107D9F721E4A6E5B1E401C01D92D7
:10013000AE3AB207E1F70E94D5000C94DB0B0C94A9
:10014000000088ED84BFE0E6F0E095E090A384BF76
:1001500083E080838091650084FFFCCF0895CF9277
:10016000DF92EF92FF92CF93DF936B017C01C0E0AF
:10017000D0E007C08FE99FE00197F1F700C00000D1
:100180002196BE010D2E000C880B990B0E946F0466
:10019000A70196010E94C703882364F3DF91CF91E2
:1001A000FF90EF90DF90CF900895CF93DF9300D032
:1001B0001F92CDB7DEB70E94A10020E030E040E8FA
:1001C00055E260E070E083E00E94390382E08983B9
:1001D00080E28A831B828FEF809361041092640413
:1001E00010E01111AEC08EE090E40E949705CE01A0
:1001F00002969F938F9380E490E49F938F930E9445
:10020000C7050F900F900F900F9016C084E490E4F4
:100210009F938F930E948305CE0102969F938F93A5
:1002200080E490E49F938F930E94C7050F900F90F6
:100230000F900F900F900F908A81863411F08035C7
:1002400029F7863409F03FC080ED90E49F938F93A7
:100250000E948305CE0101969F938F9388E990E4D5
:100260009F938F930E94C7050F900F900F900F9050
:100270000F900F9016C08BE990E49F938F930E948C
:100280008305CE0101969F938F9388E990E49F9315
:100290008F930E94C7050F900F900F900F900F90B3
:1002A0000F9089819FEF980F9A3028F71F928F93B4
:1002B0008CED90E49F938F930E9483050F900F9095
:1002C0000F900F903EC08035E1F58AE291E49F9354
:1002D0008F930E948305CE0103969F938F9388E9A5
:1002E00090E49F938F930E94C7050F900F900F90FB
:1002F0000F900F900F9016C087EF90E49F938F930D
:100300000E948305CE0103969F938F9388E990E422
:100310009F938F930E94C7050F900F900F900F909F
:100320000F900F908B81883038F71F928F9385E361
:1003300091E49F938F930E9483050F900F900F90ED
:100340000F9080E28A83EE24E394F12CC7010B80A6
:1003500002C0880F991F0A94E2F7809365046981AF
:1003600070E0660F771F072E000C880B990B0E9418
:100370006F049B01AC0160E070E08AE794E40E94A6
:10038000CC030E94AF000B8002C0EE0CFF1C0A944D
:10039000E2F7E0926604698170E0660F771F072E2E
:1003A000000C880B990B0E946F049B01AC0160E06C
:1003B00070E08AE794E40E94CC030E94AF00698158
:1003C00070E080E090E00E946F049B01AC0160E06F
:1003D00070E08AE794E40E94CC036B017C01612FFA
:1003E00070E080E090E00E946F04A70196010E94F7
:1003F0005B030E943E04162FF4CECF93DF939A0145
:10040000AB01811106C081E080930104C0E0D8E017
:1004100019C0813029F480934104C0E2D8E012C0B1
:10042000823031F481E08093A104C0E4D8E00AC0B6
:10043000833031F481E080932104C0E6D8E002C02B
:10044000C0E0D0E060E070E980ED93E00E941F051D
:10045000288739878E81806C8E83CE01DF91CF9182
:100460000895FC0162830895FC01948195FFFDCFFE
:100470000895FC0194819923ECF7818182FF04C0E7
:1004800080818EEF9FEF089586FF04C080818FEFFB
:100490009FEF0895808190E008950F931F93CF936D
:1004A000C82F8B01873069F42091AC413091AD4168
:1004B00047E050E061E070E08EE491E40E94410585
:1004C0000FC08A3019F48DE00E944D02F8010485B6
:1004D0001585C8010E9434026C2FC8010E943102A8
:1004E00080E090E0CF911F910F910895EF92FF92DD
:1004F0000F931F93CF93DF932091A6413091A74193
:10050000232B09F09AC08C01C6E5D1E4F80184855B
:1005100095850E9439028D3009F48AE08A3059F4B9
:100520008883B8010E944D0286E591E48093A6413C
:100530009093A74182C0893009F480E290EE980F31
:100540009F3510F0803A98F0F1E4C53ADF0729F4BE
:10055000B80187E00E944D02D9CF7E019FEFE91AD2
:10056000F90A8883B8010E944D02E701CFCF82319A
:1005700019F130F4833009F473C0883049F0C6CFE4
:10058000873109F44EC08F3719F08531B9F1BECFEC
:10059000E1E4C635DE0709F008F4B8CFB80188E019
:1005A0000E944D02B80180E20E944D02B80188E02D
:1005B0000E944D022197AACFB8018DE00E944D0202
:1005C0000F2EF6E5EF2EF1E4FF2EF02D06C0B80158
:1005D000F70181917F010E944D02EC16FD06B8F3F0
:1005E00095CFB80188E00E944D02B80180E20E94D8
:1005F0004D02B80188E00E944D022197F1E4C63512
:10060000DF0709F070F782CFB80188E00E944D0241
:10061000B80180E20E944D02B80188E00E944D02BC
:10062000219781E4C635D80709F008F46FCFFE01A1
:1006300031978081803241F769CFE091A641F091F6
:10064000A741CF0101968093A6419093A741808155
:100650008A3021F41092A6411092A74190E002C086
:100660008FEF9FEFDF91CF911F910F91FF90EF9050
:100670000895CF93DF93E901209749F09EE0E0E0F1
:10068000F0E4D90101900D929A95E1F70BC0E8EAE8
:10069000F1E420E030E42283338320833183248318
:1006A0003583E9010E94FD018C879D87CE01DF9192
:1006B000CF9108955058BB27AA270E9472030C942B
:1006C000E5040E94D70438F00E94DE0420F039F4DB
:1006D0009F3F19F426F40C94D4040EF4E095E7FB44
:1006E0000C94CE04E92F0E94F60458F3BA1762075F
:1006F00073078407950720F079F4A6F50C94180584
:100700000EF4E0950B2EBA2FA02D0B01B90190012C
:100710000C01CA01A0011124FF27591B99F0593F70
:1007200050F4503E68F11A16F040A22F232F342FB8
:100730004427585FF3CF469537952795A795F04006
:100740005395C9F77EF41F16BA0B620B730B840B1B
:10075000BAF09150A1F0FF0FBB1F661F771F881FD3
:10076000C2F70EC0BA0F621F731F841F48F487952B
:1007700077956795B795F7959E3F08F0B0CF93951D
:10078000880F08F09927EE0F9795879508950E9496
:10079000AA0408F481E008950E94E0030C94E504A3
:1007A0000E94DE0458F00E94D70440F029F45F3F15
:1007B00029F00C94CE0451110C9419050C94D40416
:1007C0000E94F60468F39923B1F3552391F3951B26
:1007D000550BBB27AA2762177307840738F09F5F62
:1007E0005F4F220F331F441FAA1FA9F335D00E2ECF
:1007F0003AF0E0E832D091505040E695001CCAF73C
:100800002BD0FE2F29D0660F771F881FBB1F2617FE
:1008100037074807AB07B0E809F0BB0B802DBF01D5
:10082000FF2793585F4F3AF09E3F510578F00C94A4
:10083000CE040C9419055F3FE4F3983ED4F38695FB
:1008400077956795B795F7959F5FC9F7880F911DC5
:100850009695879597F90895E1E0660F771F881FB1
:10086000BB1F621773078407BA0720F0621B730B64
:10087000840BBA0BEE1F88F7E09508950E94FE04E2
:1008800088F09F5798F0B92F9927B751B0F0E1F051
:10089000660F771F881F991F1AF0BA95C9F714C001
:1008A000B13091F00E941805B1E008950C9418053C
:1008B000672F782F8827B85F39F0B93FCCF386953A
:1008C00077956795B395D9F73EF490958095709597
:1008D00061957F4F8F4F9F4F0895E89409C097FB14
:1008E0003EF490958095709561957F4F8F4F9F4F07
:1008F0009923A9F0F92F96E9BB279395F69587954B
:1009000077956795B795F111F8CFFAF4BB0F11F40D
:1009100060FF1BC06F5F7F4F8F4F9F4F16C08823B4
:1009200011F096E911C0772321F09EE8872F762FEA
:1009300005C0662371F096E8862F70E060E02AF02B
:100940009A95660F771F881FDAF7880F9695879517
:1009500097F90895990F0008550FAA0BE0E8FEEFEC
:1009600016161706E807F907C0F012161306E40773
:10097000F50798F0621B730B840B950B39F40A266C
:1009800061F0232B242B252B21F408950A2609F44A
:10099000A140A6958FEF811D811D089597F99F674E
:1009A00080E870E060E008959FEF80EC08950024F7
:1009B0000A941616170618060906089500240A94C4
:1009C00012161306140605060895092E0394000C4A
:1009D00011F4882352F0BB0F40F4BF2B11F460FFD9
:1009E00004C06F5F7F4F8F4F9F4F089557FD905802
:1009F000440F551F59F05F3F71F04795880F97FBE3
:100A0000991F61F09F3F79F087950895121613069C
:100A10001406551FF2CF4695F1DF08C016161706CB
:100A20001806991FF1CF8695710561050894089500
:100A3000E894BB2766277727CB0197F90895A1E2B1
:100A40001A2EAA1BBB1BFD010DC0AA1FBB1FEE1F48
:100A5000FF1FA217B307E407F50720F0A21BB30B93
:100A6000E40BF50B661F771F881F991F1A9469F70F
:100A700060957095809590959B01AC01BD01CF016B
:100A800008958F929F92AF92BF92CF92DF92EF9292
:100A9000FF920F931F93CF93DF935B014A0179017C
:100AA000D90113962C9121FF1DC0C0E0D0E0C815DC
:100AB000D905D9F08C016C01CA0CDB1CC8010C15DE
:100AC0001D0571F00F5F1F4FD7011896ED91FC9136
:100AD0001997B701DC018C910995892B79F305C031
:100AE0002196E5CF80E090E001C0CE01DF91CF916B
:100AF0001F910F91FF90EF90DF90CF90BF90AF903C
:100B00009F908F900895CF93DF93CDB7DEB7AE015E
:100B10004B5F5F4FFA0161917191AF018091AA41E2
:100B20009091AB410E94DB05DF91CF9108950F9327
:100B30001F93CF93DF93E091AA41F091AB412381C2
:100B400021FF1BC08C01D0E0C0E0F80181918F0132
:100B50006091AA417091AB41DB011896ED91FC9137
:100B60001997882331F00995892B79F3DFEFCFEFBF
:100B7000ECCF8AE00995892B19F08FEF9FEF02C027
:100B80008D2F9C2FDF91CF911F910F910895CF93BF
:100B9000DF93CDB7DEB7AE014B5F5F4FFA016191D6
:100BA0007191AF018091A8419091A9410E9498094B
:100BB000DF91CF9108952F923F924F925F926F9263
:100BC0007F928F929F92AF92BF92CF92DF92EF92DD
:100BD000FF920F931F93CF93DF93CDB7DEB72B9781
:100BE000CDBFDEBF6C017B018A01FC01168217823A
:100BF000838181FFCCC1CE0101963C01F601938136
:100C0000F70193FD859193FF81917F01882309F47A
:100C1000BAC1853239F493FD859193FF81917F01AB
:100C2000853229F4B60190E00E94250BE7CF912C84
:100C3000212C312CFFE1F315D8F08B3279F038F408
:100C4000803279F08332A1F4232D20611DC08D32D2
:100C500061F0803369F4232D216016C0832D8260FA
:100C6000382EE32DE4603E2E2AC0F32DF8601DC01F
:100C700037FC2DC020ED280F2A3040F08E32B9F419
:100C800036FC81C1232D2064322E19C036FE06C0E9
:100C90008AE0989E200D1124922E11C0EAE02E9E2B
:100CA000200D1124222EF32DF0623F2E08C08C3629
:100CB00021F4832D8068382E02C0883641F4F70174
:100CC00093FD859193FF81917F018111B3CF982F7F
:100CD0009F7D9554933028F40C5F1F4F9FE39983B9
:100CE0000DC0833631F0833771F0833509F059C078
:100CF00021C0F801808189830E5F1F4F882483946F
:100D0000912C530113C02801F2E04F0E511CF80141
:100D1000A080B18036FE03C0692D70E002C06FEF85
:100D20007FEFC5010E94DC0A4C018201F32DFF77A1
:100D30003F2E16C0280122E0420E511CF801A0806F
:100D4000B18036FE03C0692D70E002C06FEF7FEF07
:100D5000C5010E94D10A4C01F32DF0683F2E82019B
:100D600033FC1BC0822D90E088169906B0F4B601C2
:100D700080E290E00E94250B2A94F4CFF50137FC25
:100D8000859137FE81915F01B60190E00E94250BAD
:100D900021102A9421E0821A91088114910471F79C
:100DA000E8C0843611F0893641F5F80137FE07C0F6
:100DB00060817181828193810C5F1F4F08C06081C7
:100DC0007181072E000C880B990B0E5F1F4FF32DBE
:100DD000FF763F2E97FF09C090958095709561959D
:100DE0007F4F8F4F9F4FF0683F2E2AE030E0A301E6
:100DF0000E947A0B882E861845C0853731F4232D42
:100E00002F7EB22E2AE030E025C0932D997FB92E97
:100E10008F36C1F018F4883579F0B5C0803719F0F5
:100E2000883721F0B0C0E92FE061BE2EB4FE0DC0BE
:100E3000FB2DF460BF2E09C034FE0AC0292F2660A6
:100E4000B22E06C028E030E005C020E130E002C04C
:100E500020E132E0F801B7FE07C060817181828134
:100E600093810C5F1F4F06C06081718180E090E02C
:100E70000E5F1F4FA3010E947A0B882E8618FB2D50
:100E8000FF773F2E36FE0DC0232D2E7FA22E891414
:100E900058F434FE0BC032FC09C0832D8E7EA82E80
:100EA00005C0B82CA32C03C0B82C01C0B92CA4FEDB
:100EB0000FC0FE01E80DF11D8081803321F49A2DD1
:100EC000997EA92E09C0A2FE06C0B394B39404C0B3
:100ED0008A2D867809F0B394A3FC11C0A0FE06C049
:100EE000B21488F4280C922C9B180EC0B21460F433
:100EF000B60180E290E00E94250BB394F7CFB214C4
:100F000018F42B1802C0982C212CA4FE10C0B60196
:100F100080E390E00E94250BA2FE17C0A1FC03C055
:100F200088E790E002C088E590E0B6010CC08A2D09
:100F3000867859F0A1FE02C08BE201C080E2A7FCD6
:100F40008DE2B60190E00E94250B891438F4B601B9
:100F500080E390E00E94250B9A94F7CF8A94F301E6
:100F6000E80DF11D8081B60190E00E94250B8110F3
:100F7000F5CF222009F442CEB60180E290E00E9433
:100F8000250B2A94F6CFF6018681978102C08FEF58
:100F90009FEF2B96CDBFDEBFDF91CF911F910F91B9
:100FA000FF90EF90DF90CF90BF90AF909F908F9089
:100FB0007F906F905F904F903F902F90089520FD0D
:100FC00009C0FC0123FD05C022FF02C073836283B8
:100FD00051834083089544FD17C046FD17C0AB01FF
:100FE000BC01DA01FB01AA0FBB1FEE1FFF1F10940B
:100FF000D1F74A0F5B1F6E1F7F1FCB01BA01660F2F
:10100000771F881F991F09C033E001C034E0660FC5
:10101000771F881F991F3150D1F7620F711D811DF5
:10102000911D08950F931F93CF93DF938C01C801F7
:101030000E94E70AEC0197FD08C00E94BD0A892BB7
:10104000B1F7B801CE010E94610BCE01DF91CF91C3
:101050001F910F9108958F929F92AF92BF92EF923E
:10106000FF920F931F93CF93DF938C01D62F7A01BA
:10107000B22E0E94E70A9C0133272B32310531F052
:101080002D32310561F48B2D8068B82ED15011F4CA
:1010900080E068C0C8010E94E70A97FDF9CFCB2D18
:1010A000CD7F2B2D207309F58033F9F4AA24AA945F
:1010B000AD0E09F443C0C8010E94E70A97FD3EC087
:1010C0009C012F7D33272835310549F4C264D25065
:1010D000A9F1C8010E94E70A97FF07C02FC0B6FE1A
:1010E00002C0C26001C0C261DA2D812C912C540172
:1010F00020ED280F283080F0C4FF04C0B8010E9402
:10110000610B19C02A3040F0C6FFF8CF2F7D3FEEAB
:10111000320F363098F727504C2FC501B4010E948A
:10112000EB074B015C01C260D15059F0C8010E942D
:10113000E70A97FFDDCFC1FD04C0AACF812C912C17
:101140005401C7FF08C0B094A09490948094811C6F
:10115000911CA11CB11C2C2FB501A401C7010E9438
:10116000DF0781E0DF91CF911F910F91FF90EF900A
:10117000BF90AF909F908F9008955F926F927F92F3
:101180008F929F92AF92BF92CF92DF92EF92FF9297
:101190000F931F93CF93DF93CDB7DEB7A097CDBF4B
:1011A000DEBF5C01962E7A01F9018E010F5F1F4FA1
:1011B000680180E2D8011D928A95E9F7D50113965E
:1011C0008C9080E090E0612C712C30E061E070E068
:1011D00083FC259183FE21918F01522E211103C0A2
:1011E00080E090E092C02E3511F4009751F1432F2A
:1011F00050E0481759073CF42D3559F12D3219F4B8
:10120000772009F103C0772009F46AC0452D46957F
:1012100046954695D601A40FB11D452D47708B010B
:1012200002C0000F111F4A95E2F7A8015C91452BFF
:101230004C93651459F0561410F45394E7CF5A9414
:10124000E5CF31E004C07724739401C0712C01967E
:10125000BFCF772019F08E8180628E83311103C059
:101260008824839417C0F6019E012F5D3F4F808133
:10127000809581932E173F07D1F7F2CFE114F10447
:1012800029F0D7018C93F70131967F019A94812C34
:101290009920F9F0C5010E94E70A97FD18C0FC01EA
:1012A000FF2723E0F595E7952A95E1F7EC0DFD1D65
:1012B000208130E0AC014770552702C03595279555
:1012C0004A95E2F720FDDACFB5010E94610B81104B
:1012D00087CFE114F10411F0D7011C92C80115C0A9
:1012E000422F469546954695D601A40FB11D422F33
:1012F00047708B0102C0000F111F4A95E2F7A80149
:101300005C91452B4C93622EA2CFA096CDBFDEBF41
:10131000DF91CF911F910F91FF90EF90DF90CF90D1
:10132000BF90AF909F908F907F906F905F90089547
:101330005F926F927F928F929F92AF92BF92CF9265
:10134000DF92EF92FF920F931F93CF93DF936C0185
:10135000EB015A01FC0116821782512CF601E38041
:10136000FE01E3FC8591E3FE8191182FEF018823B4
:1013700009F4EEC090E00E94BD0A892B21F0C6015D
:101380000E941208EBCF153241F4FE01E3FC1591E7
:10139000E3FE1191EF01153281F4C6010E94E70AC4
:1013A00097FDD4C0412F50E09C0133272417350707
:1013B000A9F2B6010E94610BCBC01A3239F4E3FCEA
:1013C0001591E3FE1191EF0101E001C000E0F12C65
:1013D00020ED210F2A3080F402606F2D70E080E054
:1013E00090E040E20E94EB07F62EFE01E3FC15912F
:1013F000E3FE1191EF01ECCF01FF03C0F11003C038
:10140000A7C0FF24FA94183619F01C3651F010C00A
:10141000FE01E3FC1591E3FE1191EF01183641F452
:1014200008600460FE01E3FC1591E3FE1191EF01F9
:10143000112309F48DC0612F70E084EF90E00E94C9
:10144000C60A892B09F484C000FD07C0F50180801D
:101450009180C50102965C0102C0812C912C1E3640
:1014600051F4F6014681578160E070E0202FC401FD
:101470000E94DF0773CF1336A9F401FD02C0FF24D9
:10148000F394C6010E94E70A97FD60C0811491049D
:1014900029F0F4018083C40101964C01FA94F11003
:1014A000F0CF50C01B3559F49E01A4016F2DC60129
:1014B0000E94BD08EC01892B09F044C03EC0C60162
:1014C0000E94120897FD42C01F3661F128F41436BD
:1014D00039F1193651F128C0133771F0153701F180
:1014E00023C08114910429F0F4016082C4010196A3
:1014F0004C01FA94FF2071F0C6010E94E70A3C01FA
:1015000097FD08C00E94BD0A892B59F3B601C3019B
:101510000E94610B81149104A9F0F401108212C0A1
:10152000006203C0006101C00064202FA4016F2D80
:10153000C6010E942B08811105C0F60183818073CA
:1015400029F406C000FD0ACF539408CF552019F0A6
:10155000852D90E002C08FEF9FEFDF91CF911F911B
:101560000F91FF90EF90DF90CF90BF90AF909F9042
:101570008F907F906F905F90089591110C94D80B8D
:10158000803219F089508550C8F70895FC01059004
:10159000061621F00020D9F7C00108953197CF0138
:1015A0000895FC010590615070400110D8F78095B6
:1015B00090958E0F9F1F0895FC016150704001901F
:1015C0000110D8F7809590958E0F9F1F0895CF93A7
:1015D000DF93EC012B8120FF33C026FF0AC02F7B55
:1015E0002B838E819F8101968E839F838A8190E0D9
:1015F00029C022FF0FC0E881F9818081082E000CEC
:10160000990B009719F420622B831AC03196E88356
:10161000F9830EC0EA85FB85099597FF09C02B81E8
:10162000019611F080E201C080E1822B8B8308C01B
:101630002E813F812F5F3F4F2E833F83992702C02A
:101640008FEF9FEFDF91CF9108950F931F93CF936B
:10165000DF93FB01238121FD03C08FEF9FEF2CC09F
:1016600022FF16C0468157812481358142175307D6
:1016700044F4A081B1819D012F5F3F4F20833183CE
:101680008C93268137812F5F3F4F2683378314C089
:101690008B01EC01FB010084F185E02D0995892B7C
:1016A000E1F6D80116968D919C91179701961696A2
:1016B0008D939C931797CE01DF91CF911F910F913E
:1016C0000895FB01238120FF12C026FD10C08F3F2B
:1016D0003FEF930761F082832F7D2064238326816F
:1016E00037812150310926833783992708958FEF59
:1016F0009FEF0895FA01AA27283051F1203181F196
:10170000E8946F936E7F6E5F7F4F8F4F9F4FAF4F09
:10171000B1E03ED0B4E03CD0670F781F891F9A1F1C
:10172000A11D680F791F8A1F911DA11D6A0F711DD0
:10173000811D911DA11D20D009F468943F912AE0DC
:10174000269F11243019305D3193DEF6CF010895C4
:10175000462F4770405D4193B3E00FD0C9F7F6CFF5
:10176000462F4F70405D4A3318F0495D31FD4052BD
:10177000419302D0A9F7EACFB4E0A6959795879553
:1017800077956795BA95C9F7009761057105089532
:101790009B01AC010A2E06945795479537952795DE
:1017A000BA95C9F7620F731F841F951FA01D089576
:0A17B000992788270895F894FFCFC9
:1017BA0000000003000000004D0276020000446FA2
:1017CA0020796F752077616E7420746F2063686169
:1017DA006E676520746865206672657175656E63EB
:1017EA0079206F7220706F736974696F6E3F200081
:1017FA0020256300496E76616C696420696E707594
:10180A00742E20506C6561736520656E7465722054
:10181A004620746F206368616E6765206672657121
:10182A0075656E6379206F72205020746F2063682B
:10183A00616E676520706F736974696F6E2E200A16
:10184A0020496E7075743A00256400496E76616CA1
:10185A00696420696E7075742E20467265717565AB
:10186A006E6379206E6565647320746F20626520EB
:10187A006265747765656E20312D31302E200A201D
:10188A004672657175656E63793A200046726571B4
:10189A0075656E6379206368616E67656420746F2D
:1018AA002025642E200A00496E76616C69642069DD
:1018BA006E7075742E20506F736974696F6E206E26
:1018CA006565647320746F2062652062657477654C
:1018DA00656E20302D372E200A20506F7369746987
:1018EA006F6E3A2000506F736974696F6E20636877
:1018FA00616E67656420746F202564200A002A726D
:06190A00696E672A0A0065
:00000001FF
