:100000000C947A000C9484000C9484000C9484006A
:100010000C9484000C9484000C9484000C94840050
:100020000C9484000C9484000C9484000C94840040
:100030000C9484000C9484000C9484000C94840030
:100040000C9484000C9484000C9484000C94840020
:100050000C9484000C9484000C9484000C94840010
:100060000C9484000C9484000C9484000C94840000
:100070000C9484000C9484000C9484000C948400F0
:100080000C9484000C9484000C9484000C948400E0
:100090000C9484000C9484000C9484000C948400D0
:1000A0000C9484000C9484000C9484000C948400C0
:1000B0000C9484000C9484000C9484000C948400B0
:1000C0000C9484000C9484000C9484000C948400A0
:1000D0000C9484000C9484000C9484000C94840090
:1000E0000C9484000C9484000C9484000C94840080
:1000F0000C94840011241FBECFEFCDBFDFE7DEBF1D
:100100000E94BA000C942A030C94000088ED84BF6E
:10011000E0E6F0E095E090A384BF83E080838091E7
:10012000650084FFFCCF0895CF92DF92EF92FF929B
:10013000CF93DF936B017C01C0E0D0E007C08FE973
:100140009FE00197F1F700C000002196BE010D2E3F
:10015000000C880B990B0E947502A70196010E9462
:10016000FC01882364F3DF91CF91FF90EF90DF9043
:10017000CF900895CF93DF9300D000D0CDB7DEB7F6
:100180000E948600E0E2F4E082898860828B84E24B
:100190008283E0E6F4E08FEF8083148219821A8272
:1001A0001B821C82912CA12CC12CD12C760168942D
:1001B000F6F8BB24B39400E014E001C010E03599D8
:1001C00030C0911039C083E090E012C09C012150F2
:1001D0003109E1E0F0E0EC0FFD1FE20FF31F408179
:1001E000E1E0F0E0EC0FFD1FE80FF91F4083C901CB
:1001F000181619065CF319822AE939E949E750E42F
:10020000C701B6010E94250318166CF0A7019601DC
:10021000C701B6010E9490016B017C01992493945F
:100220000BC0912C09C0992493940F2EC12CD12C72
:10023000E12CFFE3FF2EF02D329926C0A1102AC039
:1002400083E090E012C09C0121503109E1E0F0E030
:10025000EC0FFD1FE20FF31F4081E1E0F0E0EC0F37
:10026000FD1FE80FF91F4083C901181619065CF33A
:1002700081E08983023011F00F5F01C000E002309D
:1002800029F0AA24A39406C0A12C04C0AA24A394F4
:10029000BB24B39489818130C9F48A818130B1F45F
:1002A0008B81811113C08C81813081F409C0E1E020
:1002B000F0E0EC0FFD1FE80FF91F1082019602C05D
:1002C00080E090E08430910594F310E01093640492
:1002D000A701960160E070E08AE794E40E940102C1
:1002E0000E949400011105C01F3F09F467CF1F5FF2
:1002F00066CF013019F4110F111D61CF1F3F19F0A6
:10030000112319F004C0B12C02C0BB24B39481E0C6
:10031000B81203C0110F116052CF169550CF50582C
:10032000BB27AA270E94A7010C94EB020E94DD02C2
:1003300038F00E94E40220F039F49F3F19F426F4CB
:100340000C94DA020EF4E095E7FB0C94D402E92F4A
:100350000E94FC0258F3BA176207730784079507D7
:1003600020F079F4A6F50C941E030EF4E0950B2E04
:10037000BA2FA02D0B01B90190010C01CA01A001F7
:100380001124FF27591B99F0593F50F4503E68F152
:100390001A16F040A22F232F342F4427585FF3CF93
:1003A000469537952795A795F0405395C9F77EF464
:1003B0001F16BA0B620B730B840BBAF09150A1F0AD
:1003C000FF0FBB1F661F771F881FC2F70EC0BA0F33
:1003D000621F731F841F48F4879577956795B795BB
:1003E000F7959E3F08F0B0CF9395880F08F09927B6
:1003F000EE0F9795879508950E94B00208F481E06A
:1004000008950E9415020C94EB020E94E40258F039
:100410000E94DD0240F029F45F3F29F00C94D402E1
:1004200051110C941F030C94DA020E94FC0268F331
:100430009923B1F3552391F3951B550BBB27AA279D
:1004400062177307840738F09F5F5F4F220F331FD7
:10045000441FAA1FA9F335D00E2E3AF0E0E832D09F
:1004600091505040E695001CCAF72BD0FE2F29D0A2
:10047000660F771F881FBB1F261737074807AB0774
:10048000B0E809F0BB0B802DBF01FF2793585F4FE9
:100490003AF09E3F510578F00C94D4020C941F035F
:1004A0005F3FE4F3983ED4F3869577956795B795CB
:1004B000F7959F5FC9F7880F911D9695879597F9D6
:1004C0000895E1E0660F771F881FBB1F621773074F
:1004D0008407BA0720F0621B730B840BBA0BEE1F64
:1004E00088F7E0950895E89409C097FB3EF490954D
:1004F0008095709561957F4F8F4F9F4F9923A9F0FD
:10050000F92F96E9BB279395F6958795779567958B
:10051000B795F111F8CFFAF4BB0F11F460FF1BC0CF
:100520006F5F7F4F8F4F9F4F16C0882311F096E962
:1005300011C0772321F09EE8872F762F05C0662310
:1005400071F096E8862F70E060E02AF09A95660FC9
:10055000771F881FDAF7880F9695879597F9089582
:10056000990F0008550FAA0BE0E8FEEF16161706C4
:10057000E807F907C0F012161306E407F50798F02C
:10058000621B730B840B950B39F40A2661F0232B45
:10059000242B252B21F408950A2609F4A140A695C1
:1005A0008FEF811D811D089597F99F6780E870E0A6
:1005B00060E008959FEF80EC089500240A941616D9
:1005C000170618060906089500240A941216130641
:1005D000140605060895092E0394000C11F48823CF
:1005E00052F0BB0F40F4BF2B11F460FF04C06F5FEB
:1005F0007F4F8F4F9F4F089557FD9058440F551FC1
:1006000059F05F3F71F04795880F97FB991F61F094
:100610009F3F79F087950895121613061406551F0B
:10062000F2CF4695F1DF08C0161617061806991F77
:10063000F1CF86957105610508940895E894BB276C
:1006400066277727CB0197F908950E94B00208F436
:080650008FEF0895F894FFCF2D
:00000001FF
