S00C00004C6162382E73726563D1
S11300000C94F7000C9416010C9416010C94160130
S11300100C9416010C9416010C9416010C94160100
S11300200C9416010C9433010C9416010C941601D3
S11300300C9416010C9416010C9416010C941601E0
S11300400C9416010C9416010C9416010C941601D0
S11300500C9416010C9416010C9416010C941601C0
S11300600C9416010C9416010C9416010C941601B0
S11300700C9416010C9416010C9416010C941601A0
S11300800C9416010C9416010C9416010C94160190
S11300900C9416010C9416010C9416010C94160180
S11300A00C9416010C9416010C9416010C94160170
S11300B00C9416010C9416010C9416010C94160160
S11300C00C9416010C9416010C9416010C94160150
S11300D00C9416010C9416010C94BC010C9416019A
S11300E00C9416010C9416010C9416010C94160130
S11300F00C94160100407A10F35A00A0724E1809AD
S11301000010A5D4E80000E87648170000E40B547A
S1130110020000CA9A3B000000E1F5050000809649
S11301209800000040420F000000A086010000007B
S1130130102700000000E803000000006400000035
S113014000000A00000000000100000000002C76FE
S1130150D888DC674F0823DFC1DFAE59E1B1B79619
S1130160E5E3E453C63AE651997696E8E6C2842676
S1130170EB898C9B62ED407C6FFCEFBC9C9F40F252
S1130180BAA56FA5F490055A2AF75C936B6CF967CE
S11301906DC11BFCE0E40D47FEF520E6B500D0ED93
S11301A0902E0300943577050080841E08000020FB
S11301B04E0A000000C80C333333330F986E128399
S11301C01141EF8D2114893BE65516CFFEE6DB186D
S11301D0D1844B381BF77C1D901DA4BBE424203232
S11301E084725E228100C9F124ECA1E53D2711242B
S11301F01FBECFEFCDBFDFE7DEBF10E4A0E0B0E469
S1130200EAECF9E100E00BBF02C007900D92AC32BA
S1130210B107D9F720E4ACE2B0E401C01D92AC38D8
S1130220B207E1F70E945D010C94E30C0C9400000A
S1130230E0E0FAE0118289EF90E086A397A381E0E1
S1130240828780818B608083089588ED84BFE0E697
S1130250F0E095E090A384BF83E080838091650003
S113026084FFFCCF08951F920F920FB60F921124B2
S11302700BB60F928F939F93EF93FF938091064059
S113028090910740892B49F0809106409091074056
S113029001978093064090930740E0E0FAE083855D
S11302A081608387FF91EF919F918F910F900BBE97
S11302B00F900FBE0F901F901895CF93DF93CDB77B
S11302C0DEB72697CDBFDEBF0E9425010E9418012C
S11302D020E030E040E855E260E070E083E00E9416
S11302E0CE0381E080938204E0E0F6E098E090871A
S11302F094E0928390E2938395E09093B00080839E
S1130300828778948091064090910740892BD1F799
S113031088EE93E0809306409093074000E016E057
S1130320F8016089718980E090E00E94440423E32D
S113033033E343E550E40E94810420E030E040E8E8
S113034059E30E94810421E0F80122879E012F5F76
S11303503F4F7901890122E044E00E946105FF9248
S1130360EF9286E190E49F938F930E94D2070F90BF
S11303700F900F900F90C6CF1F920F920FB60F924F
S113038011240BB60F922F933F934F935F936F9368
S11303907F938F939F93AF93BF93EF93FF9383E0E8
S11303A090E00E949703FF91EF91BF91AF919F91CD
S11303B08F917F916F915F914F913F912F910F900A
S11303C00BBE0F900FBE0F901F901895CF92DF9227
S11303D0EF92FF92CF93DF936A017B01811108C0F2
S11303E0F901108281E080930104C0E0D8E029C0C3
S11303F0813039F4F901108280934104C0E2D8E0DD
S113040020C0823041F4F901108281E08093A1047C
S1130410C0E4D8E016C0833041F481E0F901808360
S113042080932104C0E6D8E00CC0843041F4F90183
S1130430108281E080938104C0E8D8E002C0C0E06B
S1130440D0E060E070E980ED93E0A70196010E949E
S11304503F05288739878E81806C8E83CE01DF919A
S1130460CF91FF90EF90DF90CF900895FC0195819C
S1130470906295830895FC0195819F7D95830895ED
S1130480FC0162830895FC01948195FFFDCF0895DA
S1130490FC0194819923ECF7818182FF04C080815F
S11304A08EEF9FEF089586FF04C080818FEF9FEF4A
S11304B00895808190E008959091110181E0911157
S11304C001C080E00895AF92BF92CF92DF92EF9285
S11304D0FF921F93CF93DF93182FEB01873069F4BA
S11304E020918A4030918B4047E050E061E070E019
S11304F084E290E40E94900745C08A3019F48DE0AC
S11305000E946302AC84BD84BB20ACF56501E89411
S1130510D7F87601D6011296CD91DC9113972196E6
S1130520CF73D078DD2324F42197C06CDF6F21963C
S1130530F60184819581C817D90729F4C5010E9461
S11305405C0281111FC0D6011296ED91FC911397A4
S1130550EC0DFD1D1683F70184819581C817D90719
S1130560D1F3D6011296CD93DC9313978D919C9180
S11305700E94360207C0C5010E944302612FC501D3
S11305800E94400280E090E0DF91CF911F91FF90A4
S1130590EF90DF90CF90BF90AF900895EF92FF92CD
S11305A00F931F93CF93DF9320917C4030917D4034
S11305B0232B09F0A0C08C01CCE2D0E4F80184859F
S11305C09585992324F4FC01FF77808191810E9411
S11305D048028D3009F48AE08A3059F48883B801DE
S11305E00E9463028CE290E480937C4090937D406F
S11305F082C0893009F480E290EE980F9F3510F0A4
S1130600803A98F0F0E4CB37DF0729F4B80187E0AB
S11306100E946302D3CF7E019FEFE91AF90A88830F
S1130620B8010E946302E701C9CF823119F130F4A5
S1130630833009F473C0883049F0C0CF873109F49E
S11306404EC08F3719F08531B9F1B8CFE0E4CC3220
S1130650DE0709F008F4B2CFB80188E00E94630213
S1130660B80180E20E946302B80188E00E9463023C
S11306702197A4CFB8018DE00E9463020F2EFCE203
S1130680EF2EF0E4FF2EF02D06C0B801F7018191A2
S11306907F010E946302EC16FD06B8F38FCFB80108
S11306A088E00E946302B80180E20E946302B801FC
S11306B088E00E9463022197F0E4CC32DF0709F05E
S11306C070F77CCFB80188E00E946302B80180E231
S11306D00E946302B80188E00E946302219780E4CB
S11306E0CC32D80709F008F469CFFE013197808134
S11306F0803241F763CFE0917C40F0917D40CF019F
S1130700019680937C4090937D4080818A3021F4CF
S113071010927C4010927D4090E002C08FEF9FEFDA
S1130720DF91CF911F910F91FF90EF900895CF9398
S1130730DF93880F991FE0918040F0918140E80F8A
S1130740F91FC081D1812C813D818A819B81281729
S1130750390709F1EC81FD81EC0FFD1F6681888169
S113076099810E9440028C819D8101968F739078BB
S1130770992324F40197806C9F6F01968C839D8349
S11307802C813D818A819B812817390721F4888136
S113079099810E943B02DF91CF910895AF92BF925D
S11307A0CF92DF92FF920F931F93CF93DF931F9209
S11307B0CDB7DEB7F82E89012115310549F08EE059
S11307C0E8E0F0E4D90101900D928A95E1F70BC0BD
S11307D0E6E8F0E488E090E4828393838083918365
S11307E0848395838C019E012F5F3F4F8F2D0E9440
S11307F0E6015C01F8018487958789818823C1F12A
S113080086E490E00E9481056C01FC01128213824F
S113081014821582A082B1826F2D70E080917E4097
S113082090917F406817790794F06F5F7F4F6093D2
S11308307E4070937F40660F771F80918040909137
S113084081400E94A2068093804090938140EF2DC6
S1130850F0E0EE0FFF1F8091804090918140E80FFF
S1130860F91FC082D1826894D7F8F801C486D5866E
S1130870C8010F90DF91CF911F910F91FF90DF90EE
S1130880CF90BF90AF900895E89409C097FB3EF4D1
S113089090958095709561957F4F8F4F9F4F9923C9
S11308A0A9F0F92F96E9BB279395F6958795779547
S11308B06795B795F111F8CFFAF4BB0F11F460FF07
S11308C01BC06F5F7F4F8F4F9F4F16C0882311F05F
S11308D096E911C0772321F09EE8872F762F05C073
S11308E0662371F096E8862F70E060E02AF09A950E
S11308F0660F771F881FDAF7880F9695879597F903
S113090008950E9494040C9405050E94F70438F09D
S11309100E94FE0420F0952311F00C94EE040C9434
S1130920F40411240C9439050E94160570F3959F64
S1130930C1F3950F50E0551F629FF001729FBB27D2
S1130940F00DB11D639FAA27F00DB11DAA1F649F6E
S11309506627B00DA11D661F829F2227B00DA11D21
S1130960621F739FB00DA11D621F839FA00D611DA7
S1130970221F749F3327A00D611D231F849F600DC8
S1130980211D822F762F6A2F11249F5750409AF0F1
S1130990F1F088234AF0EE0FFF1FBB1F661F771F7D
S11309A0881F91505040A9F79E3F510580F00C9448
S11309B0EE040C9439055F3FE4F3983ED4F3869536
S11309C077956795B795F795E7959F5FC1F7FE2BE8
S11309D0880F911D9695879597F9089597F99F67C4
S11309E080E870E060E008959FEF80EC08950024B3
S11309F00A941616170618060906089500240A9480
S1130A0012161306140605060895092E0394000C05
S1130A1011F4882352F0BB0F40F4BF2B11F460FF94
S1130A2004C06F5F7F4F8F4F9F4F089557FD9058BD
S1130A30440F551F59F05F3F71F04795880F97FB9E
S1130A40991F61F09F3F79F0879508951216130658
S1130A501406551FF2CF4695F1DF08C01616170687
S1130A601806991FF1CF86957105610508940895BC
S1130A70E894BB2766277727CB0197F90895A1E26D
S1130A801A2EAA1BBB1BFD010DC0AA1FBB1FEE1F04
S1130A90FF1FA217B307E407F50720F0A21BB30B4F
S1130AA0E40BF50B661F771F881F991F1A9469F7CB
S1130AB060957095809590959B01AC01BD01CF0127
S1130AC00895EF920F931F93CF93DF93E80147FDAF
S1130AD002C034E001C034E1042E000C550B57FF72
S1130AE003C0519541955109E32E022F242FAE01E5
S1130AF00E94EA09CE01DF91CF911F910F91EF90EF
S1130B0008950F931F93CF93DF938230910510F4D0
S1130B1082E090E0E0918440F091854020E030E074
S1130B20A0E0B0E0309719F1408151810281138136
S1130B3048175907C8F08417950769F4109731F0DE
S1130B4012960C93129713961C9327C0009384401B
S1130B501093854022C02115310519F0421753071F
S1130B6018F49A01BD01EF01DF01F801DBCF211573
S1130B703105F9F0281B390B2430310580F48A81C2
S1130B809B816115710521F0FB018283938304C06D
S1130B908093844090938540FE01329644C0FE01C8
S1130BA0E20FF31F819391932250310928833983F3
S1130BB03AC02091824030918340232B41F420910C
S1130BC0024030910340209382403093834020912F
S1130BD00040309101402115310541F42DB73EB755
S1130BE04091044050910540241B350BE091824014
S1130BF0F0918340E217F307A0F42E1B3F0B281754
S1130C00390778F0AC014E5F5F4F2417350748F081
S1130C104E0F5F1F40938240509383408193919382
S1130C2002C0E0E0F0E0CF01DF91CF911F910F917E
S1130C300895CF93DF93009709F481C0FC013297A4
S1130C4012821382A0918440B0918540109781F460
S1130C5020813181820F931F209182403091834003
S1130C602817390751F5E0938240F093834067C019
S1130C70ED0120E030E0CE17DF0740F44A815B81CC
S1130C809E0141155105F1F0EA01F5CFC283D383EA
S1130C9040815181840F951FC817D90759F4888161
S1130CA09981840F951F0296808391838A819B8109
S1130CB0828393832115310529F4E0938440F093D2
S1130CC085403DC0E901EA83FB8349915991C40FF2
S1130CD0D51FEC17FD0761F480819181840F951F66
S1130CE00296E90188839983828193818A839B8315
S1130CF0E0E0F0E012968D919C911397009719F023
S1130D00FD01DC01F7CF8D919C9111979D012E5F20
S1130D103F4F820F931F20918240309183402817C8
S1130D20390769F4309729F4109284401092854071
S1130D3002C012821382A0938240B0938340DF9159
S1130D40CF9108956F927F928F929F92AF92BF92AC
S1130D50CF92DF92EF92FF920F931F93CF93DF9383
S1130D60009789F4CB01DF91CF911F910F91FF90F0
S1130D70EF90DF90CF90BF90AF909F908F907F9037
S1130D806F900C948105FC01E60FF71F9C01225023
S1130D903109E217F30708F4A9C0EC01D9010D9158
S1130DA01C91119706171707B0F00530110508F4C8
S1130DB09BC0C80104978617970708F495C0025092
S1130DC01109061B170B019311936D937C93CF01AB
S1130DD00E94190689C05B01A01AB10A4C01800E59
S1130DE0911EA0918440B0918540612C712CE12C1E
S1130DF0F12C109709F446C08D919C911197A81578
S1130E00B905B1F56C0142E0C40ED11CCA14DB046F
S1130E1078F14C018A189B08640142E0C40ED11C8D
S1130E201296BC9012971396AC91B5E0CB16D104F0
S1130E3040F0B282A38380829182D9016D937C9326
S1130E4009C00E5F1F4F800F911FF90180839183AA
S1130E50EB2DFA2FE114F10431F0D7011296ED9342
S1130E60FC93139741C0E0938440F09385403CC0C9
S1130E706816790608F43C017D0112960D90BC9128
S1130E80A02DB7CF80918240909183408816990617
S1130E90E1F466167706C8F4809100409091014011
S1130EA0009741F48DB79EB740910440509105409E
S1130EB0841B950BE817F907C8F4E0938240F0937C
S1130EC08340F901608371830FC0CB010E948105C7
S1130ED07C01009759F0A801BE010E948707CE014A
S1130EE00E941906C70104C0CE0102C080E090E050
S1130EF0DF91CF911F910F91FF90EF90DF90CF90F2
S1130F00BF90AF909F908F907F906F900895FB015A
S1130F10DC0102C001900D9241505040D8F7089571
S1130F208F929F92AF92BF92CF92DF92EF92FF92F5
S1130F300F931F93CF93DF935B014A017901D9018A
S1130F4013962C9121FF1DC0C0E0D0E0C815D9052F
S1130F50D9F08C016C01CA0CDB1CC8010C151D05F1
S1130F6071F00F5F1F4FD7011896ED91FC911997FF
S1130F70B701DC018C910995892B79F305C0219681
S1130F80E5CF80E090E001C0CE01DF91CF911F91C9
S1130F900F91FF90EF90DF90CF90BF90AF909F9014
S1130FA08F900895CF93DF93CDB7DEB7AE014B5F3B
S1130FB05F4FFA0161917191AF01809188409091E6
S1130FC089400E94E607DF91CF9108952F923F92C6
S1130FD04F925F926F927F928F929F92AF92BF9245
S1130FE0CF92DF92EF92FF920F931F93CF93DF93F1
S1130FF0CDB7DEB72B97CDBFDEBF6C017B018A0175
S1131000FC0116821782838181FFCCC1CE01019637
S11310103C01F6019381F70193FD859193FF819142
S11310207F01882309F4BAC1853239F493FD85918F
S113103093FF81917F01853229F4B60190E00E94EB
S1131040490CE7CF912C212C312CFFE1F315D8F07A
S11310508B3279F038F4803279F08332A1F4232D85
S113106020611DC08D3261F0803369F4232D21602D
S113107016C0832D8260382EE32DE4603E2E2AC0F4
S1131080F32DF8601DC037FC2DC020ED280F2A3049
S113109040F08E32B9F436FC81C1232D2064322E07
S11310A019C036FE06C08AE0989E200D1124922EA7
S11310B011C0EAE02E9E200D1124222EF32DF062A1
S11310C03F2E08C08C3621F4832D8068382E02C050
S11310D0883641F4F70193FD859193FF81917F0157
S11310E08111B3CF982F9F7D9554933028F40C5FD2
S11310F01F4F9FE399830DC0833631F0833771F01E
S1131100833509F059C021C0F801808189830E5FBD
S11311101F4F88248394912C530113C02801F2E0BB
S11311204F0E511CF801A080B18036FE03C0692D1A
S113113070E002C06FEF7FEFC5010E943E0C4C01CE
S11311408201F32DFF773F2E16C0280122E0420EC4
S1131150511CF801A080B18036FE03C0692D70E0F7
S113116002C06FEF7FEFC5010E94330C4C01F32DD9
S1131170F0683F2E820133FC1BC0822D90E088165C
S11311809906B0F4B60180E290E00E94490C2A94DA
S1131190F4CFF50137FC859137FE81915F01B601EB
S11311A090E00E94490C21102A9421E0821A9108AF
S11311B08114910471F7E8C0843611F0893641F541
S11311C0F80137FE07C060817181828193810C5FD1
S11311D01F4F08C060817181072E000C880B990B8A
S11311E00E5F1F4FF32DFF763F2E97FF09C090959A
S11311F08095709561957F4F8F4F9F4FF0683F2E7C
S11312002AE030E0A3010E94850C882E861845C090
S1131210853731F4232D2F7EB22E2AE030E025C00D
S1131220932D997FB92E8F36C1F018F4883579F053
S1131230B5C0803719F0883721F0B0C0E92FE061DC
S1131240BE2EB4FE0DC0FB2DF460BF2E09C034FECB
S11312500AC0292F2660B22E06C028E030E005C05F
S113126020E130E002C020E132E0F801B7FE07C01F
S113127060817181828193810C5F1F4F06C0608100
S1131280718180E090E00E5F1F4FA3010E94850CE6
S1131290882E8618FB2DFF773F2E36FE0DC0232D9A
S11312A02E7FA22E891458F434FE0BC032FC09C0E0
S11312B0832D8E7EA82E05C0B82CA32C03C0B82C79
S11312C001C0B92CA4FE0FC0FE01E80DF11D808100
S11312D0803321F49A2D997EA92E09C0A2FE06C05E
S11312E0B394B39404C08A2D867809F0B394A3FC14
S11312F011C0A0FE06C0B21488F4280C922C9B18CE
S11313000EC0B21460F4B60180E290E00E94490C71
S1131310B394F7CFB21418F42B1802C0982C212CD4
S1131320A4FE10C0B60180E390E00E94490CA2FE26
S113133017C0A1FC03C088E790E002C088E590E0F4
S1131340B6010CC08A2D867859F0A1FE02C08BE24A
S113135001C080E2A7FC8DE2B60190E00E94490C36
S1131360891438F4B60180E390E00E94490C9A9401
S1131370F7CF8A94F301E80DF11D8081B60190E066
S11313800E94490C8110F5CF222009F442CEB60107
S113139080E290E00E94490C2A94F6CFF6018681FF
S11313A0978102C08FEF9FEF2B96CDBFDEBFDF91F9
S11313B0CF911F910F91FF90EF90DF90CF90BF904E
S11313C0AF909F908F907F906F905F904F903F90E1
S11313D02F9008958F929F92AF92BF92CF92DF92F7
S11313E0EF92FF920F931F93CF93DF93CDB7DEB7A6
S11313F02997CDBFDEBF6A01122FB02E2BE3201731
S113140020F0FF24F394F00E02C02CE3F22E0F2DF3
S113141027E0AE014F5F5F4F0E945B0BBC01498127
S1131420842F8970813031F0E1FC06C0E0FE06C0F3
S113143090E205C09DE203C09BE201C090E05E2DF6
S1131440507143FF3CC0911102C083E001C084E0AD
S1131450811718F4212F281B01C020E051110BC063
S1131460F601822F30E2882319F031938150FBCFAB
S1131470C20ED11C20E0992329F0D6019C93F601D9
S113148031966F01C6010396E2FE0AC03EE4D6011E
S11314903C9341E411964C93119712963C9306C0E9
S11314A03EE6F601308341E641833283FC01322F6C
S11314B040E2332309F442C041933150FACF42FF52
S11314C044C0911102C083E001C084E0811718F484
S11314D0212F281B01C020E051110BC0F601822FDF
S11314E030E2882319F031938150FBCFC20ED11C16
S11314F020E0992329F0D6019C93F60131966F01DF
S1131500C6010396E2FE0BC039E4D6013C933EE4E7
S113151011963C93119736E412963C9307C039E632
S1131520F60130833EE6318336E63283FC01322F06
S113153040E2332319F041933150FBCFFC01E20F19
S1131540F11D10828EEF9FEFA6C021E030E09111D3
S113155002C020E030E0161617061CF4FB01319699
S113156002C0E1E0F0E02E0F3F1FBB2021F0EB2D85
S1131570F0E0319602C0E0E0F0E02E0F3F1FE12FD3
S1131580F0E02E173F071CF4121B212F01C020E0AE
S11315908E2D887159F4F601822F30E2882319F0D8
S11315A031938150FBCFC20ED11C20E0992329F046
S11315B0D6019C93F60131966F0151110BC0F601CF
S11315C0822F90E3882319F091938150FBCFC20EB0
S11315D0D11C20E00F2D060F9A81342F307144FF67
S11315E003C0913309F40150101624F4093018F0A3
S11315F008E001C001E0AB0177FF02C040E050E029
S1131600FB01E41BF50BA1E0B0E0AC0FBD1FEA0F3A
S1131610FB1F8EE2A82E4B01801A91080B2D10E0BF
S11316201195019511094F3FBFEF5B0721F4D601D6
S1131630AC9211966D01641775072CF0841695060B
S113164014F4818101C080E3415051093196D601DF
S113165011967D014017510724F0D6018C93670140
S1131660E2CF6417750739F4963320F4953319F4EF
S1131670311101C081E3F6018083F701822F90E2EA
S1131680882319F091938150FBCFF701E20FF11DEC
S1131690108280E090E02996CDBFDEBFDF91CF912C
S11316A01F910F91FF90EF90DF90CF90BF90AF907C
S11316B09F908F900895283008F027E03327DA01AF
S11316C0990F311D87FD916000966105710539F40C
S11316D032602E5F3D9330E32A95E1F708959F3FF2
S11316E030F080387105610509F03C5F3C5F3D9343
S11316F0913008F08068911DDF93CF931F930F936F
S1131700FF92EF92192F987F9695E92F96959695CB
S1131710E90FFF27E25BFE4F99273327EE24FF24CE
S1131720A701E70105900894079428F4360FE71EF3
S1131730F81E491F511D660F771F881F991F0694B5
S1131740A1F70590079428F4E70EF81E491F561FC9
S1131750C11D770F881F991F661F0694A1F7059076
S1131760079428F4F80E491F561FC71FD11D880F70
S1131770991F661F771F0694A1F70590079420F41C
S1131780490F561FC71FD81F990F661F771F881F41
S11317900694A9F784911095177041F0D695C795D2
S11317A057954795F794E7941A95C1F7E4EFF0E05D
S11317B068941590159135916591959105907FE206
S11317C07395E118F10A430B560BC90BD009C0F706
S11317D0E10CF11E431F561FC91FD01D7EF4703348
S11317E011F48A95E6CFE894015030F0080F0AF41A
S11317F00027021708F4202F2395022F7A3328F0AC
S113180079E37D932A95E9F710C07D932A9589F6AB
S1131810069497956795379517951794E118F10AEB
S1131820430B560BC90BD00998F023957E91739501
S11318307A3308F070E37C932013B8F77E917061DB
S11318407D9330F0839571E37D9370E32A95E1F7FE
S11318501124EF90FF900F911F91CF91DF91992761
S113186087FD90950895FC0105906150704001102A
S1131870D8F7809590958E0F9F1F0895FC016150B5
S1131880704001900110D8F7809590958E0F9F1F9E
S113189008950F931F93CF93DF93FB01238121FDC1
S11318A003C08FEF9FEF2CC022FF16C046815781E3
S11318B0248135814217530744F4A081B1819D01ED
S11318C02F5F3F4F208331838C93268137812F5F95
S11318D03F4F2683378314C08B01EC01FB01008446
S11318E0F185E02D0995892BE1F6D80116968D91A5
S11318F09C911797019616968D939C931797CE01FA
S1131900DF91CF911F910F910895FA01AA272830F2
S113191051F1203181F1E8946F936E7F6E5F7F4FB8
S11319208F4F9F4FAF4FB1E03ED0B4E03CD0670F34
S1131930781F891F9A1FA11D680F791F8A1F911D87
S1131940A11D6A0F711D811D911DA11D20D009F4D7
S113195068943F912AE0269F11243019305D319319
S1131960DEF6CF010895462F4770405D4193B3E002
S11319700FD0C9F7F6CF462F4F70405D4A3318F0A9
S1131980495D31FD4052419302D0A9F7EACFB4E05A
S1131990A6959795879577956795BA95C9F7009712
S11319A06105710508959B01AC010A2E06945795B3
S11319B0479537952795BA95C9F7620F731F841F0A
S10D19C0951FA01D0895F894FFCFB1
S11319CA00008C402000E80300000003000000002F
S11319DA6302CE020000566F6C746167653A202573
S10F19EA730A0D002A72696E672A0A0055
S9030000FC
