S00C00004C6162362E73726563D3
S11300000C947A000C9499000C9499000C94990027
S11300100C9499000C9499000C9499000C949900F8
S11300200C9499000C9428010C9499000C94990058
S11300300C9499000C9499000C9499000C949900D8
S11300400C9499000C9499000C9499000C949900C8
S11300500C9499000C9499000C9499000C949900B8
S11300600C9499000C9499000C9499000C949900A8
S11300700C9499000C9499000C9499000C94990098
S11300800C9499000C9499000C9499000C94990088
S11300900C9499000C9499000C9499000C94990078
S11300A00C9499000C9499000C9499000C94990068
S11300B00C9499000C9499000C9499000C94990058
S11300C00C9499000C9499000C9499000C94990048
S11300D00C9499000C9499000C945F010C94990071
S11300E00C9499000C9499000C9499000C94990028
S11300F00C94990011241FBECFEFCDBFDFE7DEBF04
S113010010E4A0E0B0E4EEE0F4E100E00BBF02C0D4
S113011007900D92AE34B107D9F720E4AEE4B0E411
S113012001C01D92A33BB207E1F70E94B6000C94F4
S1130130050A0C940000E0E0FAE0118289EF90E0F7
S113014086A397A381E0828780818B608083089552
S113015088ED84BFE0E6F0E095E090A384BF83E0FF
S113016080838091650084FFFCCF0895E0E2F4E091
S113017088E0828B84E0828381E0809361040E9422
S1130180A80020E030E040E855E260E070E083E061
S11301900E9471030E949B00789480E001C082E079
S11301A08230A1F128F4882341F0813041F1F8CF65
S11301B0833099F18430B9F1F3CF88E190E49F93CF
S11301C08F930E941B070E94940528EB3BE040E0BC
S11301D050E00E940904DC01CB018053984FAF4FDB
S11301E0BF4F809351409093524010924E401092D2
S11301F04F40109250400F900F9081E0D1CF20914A
S1130200514030915240232B51F2CACF81E0809368
S113021065048093504083E0C3CF3299C1CF1092DC
S1130220504084E0BDCF81E08093660480914E40CD
S113023090914F409F938F9386E290E49F938F9386
S11302400E941B070F900F900F900F9080E0A8CF93
S11302501F920F920FB60F9211240BB60F928F9329
S11302609F93EF93FF938091514090915240892B3B
S113027049F08091514090915240019780935140B0
S11302809093524080915040882349F080914E4091
S113029090914F40019680934E4090934F40E0E000
S11302A0FAE0838581608387FF91EF919F918F911D
S11302B00F900BBE0F900FBE0F901F9018951F92BA
S11302C00F920FB60F9211240BB60F922F933F93F8
S11302D04F935F936F937F938F939F93AF93BF934A
S11302E0EF93FF9383E090E00E943A03FF91EF9134
S11302F0BF91AF919F918F917F916F915F914F913A
S11303003F912F910F900BBE0F900FBE0F901F9037
S11303101895CF92DF92EF92FF92CF93DF936A0109
S11303207B01811108C0F901108281E080930104EE
S1130330C0E0D8E029C0813039F4F90110828093FB
S11303404104C0E2D8E020C0823041F4F9011082B7
S113035081E08093A104C0E4D8E016C0833041F466
S113036081E0F901808380932104C0E6D8E00CC0C9
S1130370843041F4F901108281E080938104C0E863
S1130380D8E002C0C0E0D0E060E070E980ED93E026
S1130390A70196010E94E703288739878E81806C24
S11303A08E83CE01DF91CF91FF90EF90DF90CF90BD
S11303B00895FC019581906295830895FC019581CF
S11303C09F7D95830895FC0162830895FC019481C7
S11303D095FFFDCF0895FC0194819923ECF7818169
S11303E082FF04C080818EEF9FEF089586FF04C0D2
S11303F080818FEF9FEF0895808190E00895909120
S1130400110181E0911101C080E00895AF92BF9283
S1130410CF92DF92EF92FF921F93CF93DF93182F27
S1130420EB01873069F42091B1403091B24047E04C
S113043050E061E070E086E490E40E94D90645C093
S11304408A3019F48DE00E940602AC84BD84BB207E
S1130450ACF56501E894D7F87601D6011296CD91F2
S1130460DC9113972196CF73D078DD2324F4219760
S1130470C06CDF6F2196F60184819581C817D90776
S113048029F4C5010E94FF0181111FC0D6011296F3
S1130490ED91FC911397EC0DFD1D1683F7018481FA
S11304A09581C817D907D1F3D6011296CD93DC9361
S11304B013978D919C910E94D90107C0C5010E9498
S11304C0E601612FC5010E94E30180E090E0DF9125
S11304D0CF911F91FF90EF90DF90CF90BF90AF909E
S11304E00895EF92FF920F931F93CF93DF93209180
S11304F0A3403091A440232B09F0A0C08C01C3E594
S1130500D0E4F80184859585992324F4FC01FF77D0
S1130510808191810E94EB018D3009F48AE08A3058
S113052059F48883B8010E94060283E590E480931D
S1130530A3409093A44082C0893009F480E290EEF5
S1130540980F9F3510F0803A98F0F0E4C23ADF0734
S113055029F4B80187E00E940602D3CF7E019FEF01
S1130560E91AF90A8883B8010E940602E701C9CF93
S1130570823119F130F4833009F473C0883049F0C2
S1130580C0CF873109F44EC08F3719F08531B9F1E6
S1130590B8CFE0E4C335DE0709F008F4B2CFB80100
S11305A088E00E940602B80180E20E940602B801B7
S11305B088E00E9406022197A4CFB8018DE00E9432
S11305C006020F2EF3E5EF2EF0E4FF2EF02D06C009
S11305D0B801F70181917F010E940602EC16FD0625
S11305E0B8F38FCFB80188E00E940602B80180E218
S11305F00E940602B80188E00E9406022197F0E4F6
S1130600C335DF0709F070F77CCFB80188E00E949A
S11306100602B80180E20E940602B80188E00E9446
S11306200602219780E4C335D80709F008F469CF9E
S1130630FE0131978081803241F763CFE091A3407E
S1130640F091A440CF0101968093A3409093A440DD
S113065080818A3021F41092A3401092A44090E04B
S113066002C08FEF9FEFDF91CF911F910F91FF9009
S1130670EF900895CF93DF93880F991FE091A740DF
S1130680F091A840E80FF91FC081D1812C813D81F0
S11306908A819B812817390709F1EC81FD81EC0FD0
S11306A0FD1F6681888199810E94E3018C819D816F
S11306B001968F739078992324F40197806C9F6F2F
S11306C001968C839D832C813D818A819B8128178F
S11306D0390721F4888199810E94DE01DF91CF914D
S11306E00895AF92BF92CF92DF92FF920F931F9320
S11306F0CF93DF931F92CDB7DEB7F82E8901211572
S1130700310549F08EE0EAE0F0E4D90101900D9260
S11307108A95E1F70BC0EDEAF0E48AE090E4828385
S1130720938380839183848395838C019E012F5FBF
S11307303F4F8F2D0E9489015C01F80184879587C2
S113074089818823C1F186E490E00E9428046C0129
S1130750FC011282138214821582A082B1826F2D51
S113076070E08091A5409091A6406817790794F0B5
S11307706F5F7F4F6093A5407093A640660F771F0D
S11307808091A7409091A8400E94EB058093A740D8
S11307909093A840EF2DF0E0EE0FFF1F8091A7404B
S11307A09091A840E80FF91FC082D1826894D7F8CD
S11307B0F801C486D586C8010F90DF91CF911F91AF
S11307C00F91FF90DF90CF90BF90AF900895A1E27A
S11307D01A2EAA1BBB1BFD010DC0AA1FBB1FEE1FB7
S11307E0FF1FA217B307E407F50720F0A21BB30B02
S11307F0E40BF50B661F771F881F991F1A9469F77E
S113080060957095809590959B01AC01BD01CF01D9
S11308100895052E97FB1EF400940E94200457FDB2
S113082007D00E94E70307FC03D04EF40C94200485
S113083050954095309521953F4F4F4F5F4F089508
S113084090958095709561957F4F8F4F9F4F089538
S11308500F931F93CF93DF938230910510F482E0BE
S113086090E0E091AB40F091AC4020E030E0A0E0BB
S1130870B0E0309719F1408151810281138148170A
S11308805907C8F08417950769F4109731F0129648
S11308900C93129713961C9327C00093AB401093AC
S11308A0AC4022C02115310519F04217530718F442
S11308B09A01BD01EF01DF01F801DBCF21153105FC
S11308C0F9F0281B390B2430310580F48A819B818F
S11308D06115710521F0FB018283938304C0809329
S11308E0AB409093AC40FE01329644C0FE01E20F4F
S11308F0F31F8193919322503109288339833AC09D
S11309002091A9403091AA40232B41F42091024028
S1130910309103402093A9403093AA402091004095
S1130920309101402115310541F42DB73EB7409176
S1130930044050910540241B350BE091A940F091EF
S1130940AA40E217F307A0F42E1B3F0B2817390720
S113095078F0AC014E5F5F4F2417350748F04E0F17
S11309605F1F4093A9405093AA408193919302C082
S1130970E0E0F0E0CF01DF91CF911F910F91089556
S1130980CF93DF93009709F481C0FC013297128260
S11309901382A091AB40B091AC40109781F42081B8
S11309A03181820F931F2091A9403091AA402817CA
S11309B0390751F5E093A940F093AA4067C0ED01CF
S11309C020E030E0CE17DF0740F44A815B819E01CE
S11309D041155105F1F0EA01F5CFC283D38340817B
S11309E05181840F951FC817D90759F488819981BB
S11309F0840F951F0296808391838A819B818283D1
S1130A0093832115310529F4E093AB40F093AC4076
S1130A103DC0E901EA83FB8349915991C40FD51F75
S1130A20EC17FD0761F480819181840F951F029674
S1130A30E90188839983828193818A839B83E0E09F
S1130A40F0E012968D919C911397009719F0FD0197
S1130A50DC01F7CF8D919C9111979D012E5F3F4F43
S1130A60820F931F2091A9403091AA40281739077B
S1130A7069F4309729F41092AB401092AC4002C054
S1130A8012821382A093A940B093AA40DF91CF9120
S1130A9008958F929F92AF92BF92CF92DF92EF927E
S1130AA0FF92CF93DF93EC01688179818A819B81E6
S1130AB0611571058105910521F464E279ED8BE5F9
S1130AC097E02DE133EF41E050E00E940904490131
S1130AD05A019B01AC01A7EAB1E40E94E3096B014E
S1130AE07C01ACEEB4EFA50194010E94F109DC0194
S1130AF0CB018C0D9D1DAE1DBF1DB7FF03C001971B
S1130B00A109B04888839983AA83BB83BC01CD0122
S1130B109F77DF91CF91FF90EF90DF90CF90BF90C0
S1130B20AF909F908F9008958F929F92AF92BF92B3
S1130B30CF92DF92EF92FF9260910640709107404E
S1130B4080910840909109406115710581059105D6
S1130B5021F464E279ED8BE597E02DE133EF41E098
S1130B6050E00E94090449015A019B01AC01A7EA23
S1130B70B1E40E94E3096B017C01ACEEB4EFA50182
S1130B8094010E94F109DC01CB018C0D9D1DAE1D69
S1130B90BF1DB7FF03C00197A109B0488093064069
S1130BA090930740A0930840B0930940BC01CD0145
S1130BB09F77FF90EF90DF90CF90BF90AF909F9082
S1130BC08F90089560930640709307408093084087
S1130BD09093094008956F927F928F929F92AF9263
S1130BE0BF92CF92DF92EF92FF920F931F93CF9316
S1130BF0DF93009789F4CB01DF91CF911F910F917F
S1130C00FF90EF90DF90CF90BF90AF909F908F9028
S1130C107F906F900C942804FC01E60FF71F9C0151
S1130C2022503109E217F30708F4A9C0EC01D901F5
S1130C300D911C91119706171707B0F00530110597
S1130C4008F49BC0C80104978617970708F495C059
S1130C5002501109061B170B019311936D937C939A
S1130C60CF010E94C00489C05B01A01AB10A4C01E3
S1130C70800E911EA091AB40B091AC40612C712CC0
S1130C80E12CF12C109709F446C08D919C91119799
S1130C90A815B905B1F56C0142E0C40ED11CCA1403
S1130CA0DB0478F14C018A189B08640142E0C40E0D
S1130CB0D11C1296BC9012971396AC91B5E0CB164A
S1130CC0D10440F0B282A38380829182D9016D93D2
S1130CD07C9309C00E5F1F4F800F911FF901808321
S1130CE09183EB2DFA2FE114F10431F0D701129620
S1130CF0ED93FC93139741C0E093AB40F093AC4069
S1130D003CC06816790608F43C017D0112960D90EA
S1130D10BC91A02DB7CF8091A9409091AA4088168C
S1130D209906E1F466167706C8F480910040909124
S1130D300140009741F48DB79EB740910440509113
S1130D400540841B950BE817F907C8F4E093A94004
S1130D50F093AA40F901608371830FC0CB010E9414
S1130D6028047C01009759F0A801BE010E94D00616
S1130D70CE010E94C004C70104C0CE0102C080E0BD
S1130D8090E0DF91CF911F910F91FF90EF90DF9052
S1130D90CF90BF90AF909F908F907F906F90089569
S1130DA0FB01DC0102C001900D9241505040D8F784
S1130DB008958F929F92AF92BF92CF92DF92EF925B
S1130DC0FF920F931F93CF93DF935B014A01790145
S1130DD0D90113962C9121FF1DC0C0E0D0E0C815A5
S1130DE0D905D9F08C016C01CA0CDB1CC8010C15A7
S1130DF01D0571F00F5F1F4FD7011896ED91FC91FF
S1130E001997B701DC018C910995892B79F305C0F9
S1130E102196E5CF80E090E001C0CE01DF91CF9133
S1130E201F910F91FF90EF90DF90CF90BF90AF9004
S1130E309F908F900895CF93DF93CDB7DEB7AE0127
S1130E404B5F5F4FFA0161917191AF018091AF40A7
S1130E509091B0400E942F07DF91CF9108952F9277
S1130E603F924F925F926F927F928F929F92AF9236
S1130E70BF92CF92DF92EF92FF920F931F93CF9383
S1130E80DF93CDB7DEB72B97CDBFDEBF6C017B01FF
S1130E908A01FC0116821782838181FFCCC1CE01B5
S1130EA001963C01F6019381F70193FD859193FF2F
S1130EB081917F01882309F4BAC1853239F493FD05
S1130EC0859193FF81917F01853229F4B60190E0E9
S1130ED00E944909E7CF912C212C312CFFE1F31515
S1130EE0D8F08B3279F038F4803279F08332A1F47F
S1130EF0232D20611DC08D3261F0803369F4232DD0
S1130F00216016C0832D8260382EE32DE4603E2ECE
S1130F102AC0F32DF8601DC037FC2DC020ED280F2A
S1130F202A3040F08E32B9F436FC81C1232D20647E
S1130F30322E19C036FE06C08AE0989E200D112478
S1130F40922E11C0EAE02E9E200D1124222EF32DA4
S1130F50F0623F2E08C08C3621F4832D8068382E31
S1130F6002C0883641F4F70193FD859193FF819186
S1130F707F018111B3CF982F9F7D9554933028F42E
S1130F800C5F1F4F9FE399830DC0833631F0833785
S1130F9071F0833509F059C021C0F801808189833B
S1130FA00E5F1F4F88248394912C530113C0280192
S1130FB0F2E04F0E511CF801A080B18036FE03C050
S1130FC0692D70E002C06FEF7FEFC5010E943E09FA
S1130FD04C018201F32DFF773F2E16C0280122E039
S1130FE0420E511CF801A080B18036FE03C0692D69
S1130FF070E002C06FEF7FEFC5010E9433094C011E
S1131000F32DF0683F2E820133FC1BC0822D90E04B
S113101088169906B0F4B60180E290E00E9449096E
S11310202A94F4CFF50137FC859137FE81915F0155
S1131030B60190E00E94490921102A9421E0821A05
S113104091088114910471F7E8C0843611F089364F
S113105041F5F80137FE07C0608171818281938177
S11310600C5F1F4F08C060817181072E000C880B34
S1131070990B0E5F1F4FF32DFF763F2E97FF09C08C
S113108090958095709561957F4F8F4F9F4FF06835
S11310903F2E2AE030E0A3010E948509882E86189D
S11310A045C0853731F4232D2F7EB22E2AE030E05F
S11310B025C0932D997FB92E8F36C1F018F4883549
S11310C079F0B5C0803719F0883721F0B0C0E92F26
S11310D0E061BE2EB4FE0DC0FB2DF460BF2E09C02E
S11310E034FE0AC0292F2660B22E06C028E030E064
S11310F005C020E130E002C020E132E0F801B7FE93
S113110007C060817181828193810C5F1F4F06C08B
S11311106081718180E090E00E5F1F4FA3010E9407
S11311208509882E8618FB2DFF773F2E36FE0DC0CD
S1131130232D2E7FA22E891458F434FE0BC032FCCA
S113114009C0832D8E7EA82E05C0B82CA32C03C005
S1131150B82C01C0B92CA4FE0FC0FE01E80DF11D8E
S11311608081803321F49A2D997EA92E09C0A2FE94
S113117006C0B394B39404C08A2D867809F0B3945E
S1131180A3FC11C0A0FE06C0B21488F4280C922C53
S11311909B180EC0B21460F4B60180E290E00E9485
S11311A04909B394F7CFB21418F42B1802C0982C41
S11311B0212CA4FE10C0B60180E390E00E944909EE
S11311C0A2FE17C0A1FC03C088E790E002C088E536
S11311D090E0B6010CC08A2D867859F0A1FE02C0B9
S11311E08BE201C080E2A7FC8DE2B60190E00E9490
S11311F04909891438F4B60180E390E00E94490952
S11312009A94F7CF8A94F301E80DF11D8081B60119
S113121090E00E9449098110F5CF222009F442CEC2
S1131220B60180E290E00E9449092A94F6CFF601C3
S11312308681978102C08FEF9FEF2B96CDBFDEBFD3
S1131240DF91CF911F910F91FF90EF90DF90CF909E
S1131250BF90AF909F908F907F906F905F904F90D2
S11312603F902F900895FC0105906150704001104B
S1131270D8F7809590958E0F9F1F0895FC016150BB
S1131280704001900110D8F7809590958E0F9F1FA4
S113129008950F931F93CF93DF93FB01238121FDC7
S11312A003C08FEF9FEF2CC022FF16C046815781E9
S11312B0248135814217530744F4A081B1819D01F3
S11312C02F5F3F4F208331838C93268137812F5F9B
S11312D03F4F2683378314C08B01EC01FB0100844C
S11312E0F185E02D0995892BE1F6D80116968D91AB
S11312F09C911797019616968D939C931797CE0100
S1131300DF91CF911F910F910895FA01AA272830F8
S113131051F1203181F1E8946F936E7F6E5F7F4FBE
S11313208F4F9F4FAF4FB1E03ED0B4E03CD0670F3A
S1131330781F891F9A1FA11D680F791F8A1F911D8D
S1131340A11D6A0F711D811D911DA11D20D009F4DD
S113135068943F912AE0269F11243019305D31931F
S1131360DEF6CF010895462F4770405D4193B3E008
S11313700FD0C9F7F6CF462F4F70405D4A3318F0AF
S1131380495D31FD4052419302D0A9F7EACFB4E060
S1131390A6959795879577956795BA95C9F7009718
S11313A06105710508959B01AC010A2E06945795B9
S11313B0479537952795BA95C9F7620F731F841F10
S11313C0951FA01D08950E94F609A59F900DB49F36
S11313D0900DA49F800D911D11240895B7FF0C94C6
S11313E0E3090E94E309821B930B0895A29FB001B5
S11313F0B39FC001A39F700D811D1124911DB29F45
S1111400700D811D1124911D0895F894FFCFE5
S113140E0000B340200001000000000000030000B3
S113141E0000060271020000476574207265616463
S113142E792E2E2E2000596F7572207265616374A9
S113143E696F6E2074696D652069733A2025752075
S111144E6D73200D0A002A72696E672A0A0067
S9030000FC
