S01700004763634170706C69636174696F6E332E7372656359
S11300000C9480000C949F000C949F000C949F000F
S11300100C949F000C949F000C949F000C949F00E0
S11300200C949F000C949F000C949F000C949F00D0
S11300300C949F000C949F000C949F000C949F00C0
S11300400C949F000C949F000C949F000C949F00B0
S11300500C949F000C949F000C949F000C949F00A0
S11300600C949F000C949F000C949F000C949F0090
S11300700C949F000C949F000C949F000C949F0080
S11300800C949F000C949F000C949F000C949F0070
S11300900C949F000C949F000C949F000C949F0060
S11300A00C949F000C949F000C949F000C949F0050
S11300B00C949F000C949F000C949F000C949F0040
S11300C00C949F000C949F000C949F000C949F0030
S11300D00C949F000C94D5000C94B4020C949F00D3
S11300E00C949F000C949F000C949F000C949F0010
S11300F00C949F006364696E6F70737578585B002D
S113010011241FBECFEFCDBFDFE7DEBF11E4A0E0B7
S1130110B0E4EEE2FDE100E00BBF02C007900D92F7
S1130120AC34B107D9F721E4ACE4B1E401C01D92C9
S1130130AD3AB207E1F70E94E5000C94950E0C94D9
S11301400000CF92DF92EF92FF92CF93DF936B0187
S11301507C01C0E0D0E007C08FE99FE00197F1F790
S113016000C000002196BE010D2E000C880B990BD7
S11301700E944305A70196010E943C05882364F36D
S1130180DF91CF91FF90EF90DF90CF90089588EDAD
S113019084BFE0E6F0E095E090A384BF83E0808331
S11301A08091650084FFFCCF08951F920F920FB6D3
S11301B00F9211248F938091600880934C418F910A
S11301C00F900FBE0F901F901895CF93DF93CDB76C
S11301D0DEB72597CDBFDEBF0E94C7008FEF8093A7
S11301E0600420E030E040E05BE460E070E083E045
S11301F00E94C604E0E6F8E08581806885837894EF
S11302008FEF9FEF89839A838B839C83E0E2F4E0F2
S113021084E0828388E0828BC12CD12CB12C10E045
S1130220A12C6894EE24E1F8F12C01E00BC0C12C60
S1130230D12C08C0C12CD12C05C0C12CD12C07E075
S113024001C007E081E090E0002E02C0880F991FF2
S11302500A94E2F78DB984EF91E0B7010E94A205F8
S1130260072E000C880B990B0E9443052B013C01BF
S11302700E94A1001DB8C301B2010E94A100113067
S113028039F488EE93E0B7010E94A205C60ED71E8A
S11302908091280482FD2AC08FE39CE90197F1F73D
S11302A000C000008091280482FD21C0B1101FC04D
S11302B0812F90E0019681709078992324F401971E
S11302C08E6F9F6F0196182F99279F938F9384E1C8
S11302D090E49F938F930E943D080F900F900F908E
S11302E00F90C12CD12CBB24B39401C0B12C11307C
S11302F009F07BC0E0E6F8E08581158291EDC9162E
S113030097E0D9060CF49ECF83E390E40E94510851
S1130310CE0105969F938F9380E590E49F938F93EE
S11303200E9481080F900F900F900F9012C084E5E7
S113033090E40E945108CE0105969F938F9380E527
S113034090E49F938F930E9481080F900F900F90D9
S11303500F908D81873731F0813621F0833711F08A
S1130360843629F7873791F42FEFE21AF20AFF92C5
S1130370EF928FE890E49F938F930E943D080F9033
S11303800F900F900F90C12CD12C5CCF813639F493
S1130390002309F44CCF0150C12CD12C53CF833707
S11303A0D1F432E0E316F10424F041E0E41AF10858
S11303B003C0EE24E394F12CFF92EF928FE890E4D3
S11303C09F938F930E943D080F900F900F900F9072
S11303D0C12CD12C37CF843609F02CCF073008F04C
S11303E02CCF0F5FC12CD12C2DCFE5E6F8E0808116
S11303F08068808380914C41882309F423CF8091C5
S11304004C4110924C41873781F48FEFE81AF80A77
S1130410FF92EF928FE890E49F938F930E943D08A0
S11304200F900F900F900F900DCF813629F4002379
S113043009F408CF015006CF8337C1F492E0E916DE
S1130440F10424F021E0E21AF10803C0EE24E3945D
S1130450F12CFF92EF928FE890E49F938F930E9488
S11304603D080F900F900F900F90ECCE843629F436
S1130470073008F0E6CE0F5FE5CE90ED980F9A3086
S113048040F531E03A1580F0EA2DF0E090E0C097B5
S1130490EE0FFF1F21E030E02C0F3D1FE20FF31F92
S11304A080839183A394CECE8C818F938B818F9301
S11304B08A818F9389818F9383EA90E49F938F93AA
S11304C00E943D080F900F900F900F900F900F9087
S11304D0B9CE8D3009F043C089819A818F3F3FEFB7
S11304E0930729F487EE90E40E94510830C00097E6
S11304F061F42B813C812F5F3F4F2230310528F47A
S113050086E191E40E94510822C02B813C812F3F57
S11305104FEF340779F07C01EE0CFF1C880F991F14
S1130520880F991F880F991F8E0D9F1D7901E80E62
S1130530F91E01C07C01FF92EF928FE890E49F9333
S11305408F930E943D080F900F900F900F908FEFA4
S11305509FEF89839A838B839C83A12C73CE81E341
S113056091E40E9451086ECE1F920F920FB60F9223
S113057011240BB60F922F933F934F935F936F9376
S11305807F938F939F93AF93BF93EF93FF9383E0F6
S113059090E00E948F04FF91EF91BF91AF919F91E2
S11305A08F917F916F915F914F913F912F910F9018
S11305B00BBE0F900FBE0F901F901895CF92DF9235
S11305C0EF92FF92CF93DF936A017B01811108C000
S11305D0F901108281E080930104C0E0D8E029C0D1
S11305E0813039F4F901108280934104C0E2D8E0EB
S11305F020C0823041F4F901108281E08093A1048B
S1130600C0E4D8E016C0833041F481E0F90180836E
S113061080932104C0E6D8E00CC0843041F4F90191
S1130620108281E080938104C0E8D8E002C0C0E079
S1130630D0E060E070E980ED93E0A70196010E94AC
S1130640B605288739878E81806C8E83CE01DF9131
S1130650CF91FF90EF90DF90CF900895FC019581AA
S1130660906295830895FC0195819F7D95830895FB
S1130670FC0162830895FC01948195FFFDCF0895E8
S1130680FC0194819923ECF7818182FF04C080816D
S11306908EEF9FEF089586FF04C080818FEF9FEF58
S11306A00895808190E008959091110181E0911165
S11306B001C080E00895AF92BF92CF92DF92EF9293
S11306C0FF921F93CF93DF93182FEB01873069F4C8
S11306D02091AB413091AC4147E050E061E070E0E3
S11306E084E491E40E94FB0745C08A3019F48DE04C
S11306F00E945B03AC84BD84BB20ACF56501E89427
S1130700D7F87601D6011296CD91DC9113972196F4
S1130710CF73D078DD2324F42197C06CDF6F21964A
S1130720F60184819581C817D90729F4C5010E946F
S1130730540381111FC0D6011296ED91FC911397B9
S1130740EC0DFD1D1683F70184819581C817D90727
S1130750D1F3D6011296CD93DC9313978D919C918E
S11307600E942E0307C0C5010E943B03612FC501EF
S11307700E94380380E090E0DF91CF911F91FF90B9
S1130780EF90DF90CF90BF90AF900895EF92FF92DB
S11307900F931F93CF93DF9320919D4130919E41FE
S11307A0232B09F0A0C08C01CDE4D1E4F8018485A9
S11307B09585992324F4FC01FF77808191810E941F
S11307C040038D3009F48AE08A3059F48883B801F3
S11307D00E945B038DE491E480939D4190939E413C
S11307E082C0893009F480E290EE980F9F3510F0B2
S11307F0803A98F0F1E4CC39DF0729F4B80187E0B6
S11308000E945B03D3CF7E019FEFE91AF90A888324
S1130810B8010E945B03E701C9CF823119F130F4BA
S1130820833009F473C0883049F0C0CF873109F4AC
S11308304EC08F3719F08531B9F1B8CFE1E4CD342A
S1130840DE0709F008F4B2CFB80188E00E945B0328
S1130850B80180E20E945B03B80188E00E945B0358
S11308602197A4CFB8018DE00E945B030F2EFDE415
S1130870EF2EF1E4FF2EF02D06C0B801F7018191AF
S11308807F010E945B03EC16FD06B8F38FCFB8011D
S113089088E00E945B03B80180E20E945B03B80118
S11308A088E00E945B032197F1E4CD34DF0709F06F
S11308B070F77CCFB80188E00E945B03B80180E246
S11308C00E945B03B80188E00E945B03219781E4E6
S11308D0CD34D80709F008F469CFFE01319780813F
S11308E0803241F763CFE0919D41F0919E41CF0169
S11308F0019680939D4190939E4180818A3021F49A
S113090010929D4110929E4190E002C08FEF9FEFA4
S1130910DF91CF911F910F91FF90EF900895CF93A6
S1130920DF93880F991FE091A141F091A241E80F54
S1130930F91FC081D1812C813D818A819B81281737
S1130940390709F1EC81FD81EC0FFD1F6681888177
S113095099810E9438038C819D8101968F739078D0
S1130960992324F40197806C9F6F01968C839D8357
S11309702C813D818A819B812817390721F4888144
S113098099810E943303DF91CF910895AF92BF9272
S1130990CF92DF92FF920F931F93CF93DF931F9217
S11309A0CDB7DEB7F82E89012115310549F08EE067
S11309B0E6E0F0E4D90101900D928A95E1F70BC0CD
S11309C0E7EAF1E486E090E4828393838083918371
S11309D0848395838C019E012F5F3F4F8F2D0E944E
S11309E0DE025C01F8018487958789818823C1F13F
S11309F086E490E00E94EC056C01FC0112821382F3
S1130A0014821582A082B1826F2D70E080919F4183
S1130A109091A0416817790794F06F5F7F4F6093BE
S1130A209F417093A041660F771F8091A1419091DF
S1130A30A2410E940D078093A1419093A241EF2D02
S1130A40F0E0EE0FFF1F8091A1419091A241E80FC9
S1130A50F91FC082D1826894D7F8F801C486D5867C
S1130A60C8010F90DF91CF911F910F91FF90DF90FC
S1130A70CF90BF90AF9008950E947E0508F481E066
S1130A800895E89409C097FB3EF49095809570957D
S1130A9061957F4F8F4F9F4F9923A9F0F92F96E9C6
S1130AA0BB279395F695879577956795B795F1113B
S1130AB0F8CFFAF4BB0F11F460FF1BC06F5F7F4FD8
S1130AC08F4F9F4F16C0882311F096E911C07723EA
S1130AD021F09EE8872F762F05C0662371F096E8F3
S1130AE0862F70E060E02AF09A95660F771F881FC2
S1130AF0DAF7880F9695879597F90895990F000866
S1130B00550FAA0BE0E8FEEF16161706E807F907DB
S1130B10C0F012161306E407F50798F0621B730B76
S1130B20840B950B39F40A2661F0232B242B252BF7
S1130B3021F408950A2609F4A140A6958FEF811D9A
S1130B40811D089597FB072E16F4009407D077FDB6
S1130B5009D00E94D80507FC05D03EF490958195F4
S1130B609F4F0895709561957F4F0895A1E21A2EC5
S1130B70AA1BBB1BFD010DC0AA1FBB1FEE1FFF1F3D
S1130B80A217B307E407F50720F0A21BB30BE40B8D
S1130B90F50B661F771F881F991F1A9469F76095D4
S1130BA07095809590959B01AC01BD01CF0108958E
S1130BB0AA1BBB1B51E107C0AA1FBB1FA617B7077F
S1130BC010F0A61BB70B881F991F5A95A9F780959B
S1130BD09095BC01CD0108950F931F93CF93DF939C
S1130BE08230910510F482E090E0E091A541F0910B
S1130BF0A64120E030E0A0E0B0E0309719F1408158
S1130C0051810281138148175907C8F08417950749
S1130C1069F4109731F012960C93129713961C9363
S1130C2027C00093A5411093A64122C02115310588
S1130C3019F04217530718F49A01BD01EF01DF01BF
S1130C40F801DBCF21153105F9F0281B390B2430CD
S1130C50310580F48A819B816115710521F0FB01C6
S1130C608283938304C08093A5419093A641FE019F
S1130C70329644C0FE01E20FF31F819391932250F8
S1130C803109288339833AC02091A3413091A4418A
S1130C90232B41F420910240309103402093A3413F
S1130CA03093A44120910040309101402115310539
S1130CB041F42DB73EB74091044050910540241BA8
S1130CC0350BE091A341F091A441E217F307A0F49E
S1130CD02E1B3F0B2817390778F0AC014E5F5F4F8E
S1130CE02417350748F04E0F5F1F4093A3415093DC
S1130CF0A4418193919302C0E0E0F0E0CF01DF9141
S1130D00CF911F910F910895CF93DF93009709F42A
S1130D1081C0FC01329712821382A091A541B09147
S1130D20A641109781F420813181820F931F209175
S1130D30A3413091A4412817390751F5E093A34109
S1130D40F093A44167C0ED0120E030E0CE17DF0747
S1130D5040F44A815B819E0141155105F1F0EA019D
S1130D60F5CFC283D38340815181840F951FC81767
S1130D70D90759F488819981840F951F029680833D
S1130D8091838A819B81828393832115310529F480
S1130D90E093A541F093A6413DC0E901EA83FB83BA
S1130DA049915991C40FD51FEC17FD0761F4808157
S1130DB09181840F951F0296E9018883998382812A
S1130DC093818A839B83E0E0F0E012968D919C915D
S1130DD01397009719F0FD01DC01F7CF8D919C91D9
S1130DE011979D012E5F3F4F820F931F2091A341C6
S1130DF03091A4412817390769F4309729F41092E7
S1130E00A5411092A64102C012821382A093A3416D
S1130E10B093A441DF91CF9108956F927F928F9206
S1130E209F92AF92BF92CF92DF92EF92FF920F9375
S1130E301F93CF93DF93009789F4CB01DF91CF9178
S1130E401F910F91FF90EF90DF90CF90BF90AF90E4
S1130E509F908F907F906F900C94EC05FC01E60FAF
S1130E60F71F9C0122503109E217F30708F4A9C0C7
S1130E70EC01D9010D911C91119706171707B0F0D9
S1130E800530110508F49BC0C8010497861797071D
S1130E9008F495C002501109061B170B0193119316
S1130EA06D937C93CF010E94840689C05B01A01AD4
S1130EB0B10A4C01800E911EA091A541B091A641AA
S1130EC0612C712CE12CF12C109709F446C08D9102
S1130ED09C911197A815B905B1F56C0142E0C40EB7
S1130EE0D11CCA14DB0478F14C018A189B086401F4
S1130EF042E0C40ED11C1296BC9012971396AC918A
S1130F00B5E0CB16D10440F0B282A38380829182F3
S1130F10D9016D937C9309C00E5F1F4F800F911F01
S1130F20F90180839183EB2DFA2FE114F10431F060
S1130F30D7011296ED93FC93139741C0E093A5411A
S1130F40F093A6413CC06816790608F43C017D0183
S1130F5012960D90BC91A02DB7CF8091A341909192
S1130F60A44188169906E1F466167706C8F48091C0
S1130F70004090910140009741F48DB79EB7409195
S1130F80044050910540841B950BE817F907C8F4F9
S1130F90E093A341F093A441F901608371830FC0EE
S1130FA0CB010E94EC057C01009759F0A801BE0119
S1130FB00E94F207CE010E948406C70104C0CE013C
S1130FC002C080E090E0DF91CF911F910F91FF90DC
S1130FD0EF90DF90CF90BF90AF909F908F907F90D5
S1130FE06F900895FB01DC0102C001900D92415005
S1130FF05040D8F708958F929F92AF92BF92CF92AC
S1131000DF92EF92FF920F931F93CF93DF935B01D5
S11310104A017901D90113962C9121FF1DC0C0E02A
S1131020D0E0C815D905D9F08C016C01CA0CDB1CC1
S1131030C8010C151D0571F00F5F1F4FD7011896DD
S1131040ED91FC911997B701DC018C910995892BDD
S113105079F305C02196E5CF80E090E001C0CE0190
S1131060DF91CF911F910F91FF90EF90DF90CF9080
S1131070BF90AF909F908F900895CF93DF93CDB79B
S1131080DEB7AE014B5F5F4FFA0161917191AF0121
S11310908091A9419091AA410E949508DF91CF9136
S11310A008950F931F93CF93DF93E091A941F0919B
S11310B0AA41238121FF1BC08C01D0E0C0E0F801CC
S11310C081918F016091A9417091AA41DB01189629
S11310D0ED91FC911997882331F00995892B79F3C7
S11310E0DFEFCFEFECCF8AE00995892B19F08FEF72
S11310F09FEF02C08D2F9C2FDF91CF911F910F91F5
S11311000895CF93DF93CDB7DEB7AE014B5F5F4F4A
S1131110FA0161917191AF018091A7419091A84129
S11311200E94520CDF91CF9108952F923F924F92DB
S11311305F926F927F928F929F92AF92BF92CF9263
S1131140DF92EF92FF920F931F93CF93DF93CDB76C
S1131150DEB72B97CDBFDEBF6C017B018A01FC019A
S113116016821782838181FFCCC1CE0101963C0196
S1131170F6019381F70193FD859193FF81917F019E
S1131180882309F4BAC1853239F493FD859193FF1C
S113119081917F01853229F4B60190E00E94DF0D30
S11311A0E7CF912C212C312CFFE1F315D8F08B32B1
S11311B079F038F4803279F08332A1F4232D206160
S11311C01DC08D3261F0803369F4232D216016C077
S11311D0832D8260382EE32DE4603E2E2AC0F32D49
S11311E0F8601DC037FC2DC020ED280F2A3040F0D8
S11311F08E32B9F436FC81C1232D2064322E19C0FD
S113120036FE06C08AE0989E200D1124922E11C04D
S1131210EAE02E9E200D1124222EF32DF0623F2EA3
S113122008C08C3621F4832D8068382E02C088369D
S113123041F4F70193FD859193FF81917F01811121
S1131240B3CF982F9F7D9554933028F40C5F1F4F94
S11312509FE399830DC0833631F0833771F0833572
S113126009F059C021C0F801808189830E5F1F4FA6
S113127088248394912C530113C02801F2E04F0E6B
S1131280511CF801A080B18036FE03C0692D70E0C6
S113129002C06FEF7FEFC5010E94960D4C018201E1
S11312A0F32DFF773F2E16C0280122E0420E511C79
S11312B0F801A080B18036FE03C0692D70E002C041
S11312C06FEF7FEFC5010E948B0D4C01F32DF06889
S11312D03F2E820133FC1BC0822D90E088169906B4
S11312E0B0F4B60180E290E00E94DF0D2A94F4CFBE
S11312F0F50137FC859137FE81915F01B60190E0DD
S11313000E94DF0D21102A9421E0821A9108811491
S1131310910471F7E8C0843611F0893641F5F8017B
S113132037FE07C060817181828193810C5F1F4FFA
S113133008C060817181072E000C880B990B0E5F29
S11313401F4FF32DFF763F2E97FF09C09095809590
S1131350709561957F4F8F4F9F4FF0683F2E2AE025
S113136030E0A3010E94340E882E861845C08537CC
S113137031F4232D2F7EB22E2AE030E025C0932DA8
S1131380997FB92E8F36C1F018F4883579F0B5C03D
S1131390803719F0883721F0B0C0E92FE061BE2E04
S11313A0B4FE0DC0FB2DF460BF2E09C034FE0AC08C
S11313B0292F2660B22E06C028E030E005C020E1C7
S11313C030E002C020E132E0F801B7FE07C06081DE
S11313D07181828193810C5F1F4F06C0608171818E
S11313E080E090E00E5F1F4FA3010E94340E882E10
S11313F08618FB2DFF773F2E36FE0DC0232D2E7F42
S1131400A22E891458F434FE0BC032FC09C0832D7B
S11314108E7EA82E05C0B82CA32C03C0B82C01C006
S1131420B92CA4FE0FC0FE01E80DF11D80818033AC
S113143021F49A2D997EA92E09C0A2FE06C0B39468
S1131440B39404C08A2D867809F0B394A3FC11C028
S1131450A0FE06C0B21488F4280C922C9B180EC06F
S1131460B21460F4B60180E290E00E94DF0DB39400
S1131470F7CFB21418F42B1802C0982C212CA4FE18
S113148010C0B60180E390E00E94DF0DA2FE17C0F9
S1131490A1FC03C088E790E002C088E590E0B601B3
S11314A00CC08A2D867859F0A1FE02C08BE201C0DF
S11314B080E2A7FC8DE2B60190E00E94DF0D891462
S11314C038F4B60180E390E00E94DF0D9A94F7CFE0
S11314D08A94F301E80DF11D8081B60190E00E9429
S11314E0DF0D8110F5CF222009F442CEB60180E24F
S11314F090E00E94DF0D2A94F6CFF6018681978151
S113150002C08FEF9FEF2B96CDBFDEBFDF91CF914F
S11315101F910F91FF90EF90DF90CF90BF90AF900D
S11315209F908F907F906F905F904F903F902F90FF
S1131530089520FD09C0FC0123FD05C022FF02C05F
S11315407383628351834083089544FD17C046FD2D
S113155017C0AB01BC01DA01FB01AA0FBB1FEE1FD0
S1131560FF1F1094D1F74A0F5B1F6E1F7F1FCB0123
S1131570BA01660F771F881F991F09C033E001C0A5
S113158034E0660F771F881F991F3150D1F7620F1F
S1131590711D811D911D08950F931F93CF93DF93A8
S11315A08C01C8010E94A10DEC0197FD08C00E94A6
S11315B0770D892BB1F7B801CE010E941B0ECE0125
S11315C0DF91CF911F910F9108958F929F92AF92C7
S11315D0BF92EF92FF920F931F93CF93DF938C01EF
S11315E0D62F7A01B22E0E94A10D9C0133272B32F3
S11315F0310531F02D32310561F48B2D8068B82E20
S1131600D15011F480E068C0C8010E94A10D97FD7B
S1131610F9CFCB2DCD7F2B2D207309F58033F9F431
S1131620AA24AA94AD0E09F443C0C8010E94A10DD6
S113163097FD3EC09C012F7D33272835310549F4A1
S1131640C264D250A9F1C8010E94A10D97FF07C03E
S11316502FC0B6FE02C0C26001C0C261DA2D812C67
S1131660912C540120ED280F283080F0C4FF04C0D1
S1131670B8010E941B0E19C02A3040F0C6FFF8CFF3
S11316802F7D3FEE320F363098F727504C2FC5018F
S1131690B4010E94A50A4B015C01C260D15059F00B
S11316A0C8010E94A10D97FFDDCFC1FD04C0AACFE0
S11316B0812C912C5401C7FF08C0B094A09490943D
S11316C08094811C911CA11CB11C2C2FB501A40178
S11316D0C7010E94990A81E0DF91CF911F910F9178
S11316E0FF90EF90BF90AF909F908F9008955F927E
S11316F06F927F928F929F92AF92BF92CF92DF921E
S1131700EF92FF920F931F93CF93DF93CDB7DEB782
S1131710A097CDBFDEBF5C01962E7A01F9018E0140
S11317200F5F1F4F680180E2D8011D928A95E9F787
S1131730D50113968C9080E090E0612C712C30E000
S113174061E070E083FC259183FE21918F01522E8C
S1131750211103C080E090E092C02E3511F400976F
S113176051F1432F50E0481759073CF42D3559F1F6
S11317702D3219F4772009F103C0772009F46AC0E7
S1131780452D469546954695D601A40FB11D452D88
S113179047708B0102C0000F111F4A95E2F7A801A0
S11317A05C91452B4C93651459F0561410F45394E2
S11317B0E7CF5A94E5CF31E004C07724739401C095
S11317C0712C0196BFCF772019F08E8180628E83B1
S11317D0311103C08824839417C0F6019E012F5D44
S11317E03F4F8081809581932E173F07D1F7F2CF29
S11317F0E114F10429F0D7018C93F70131967F01AC
S11318009A94812C9920F9F0C5010E94A10D97FDAD
S113181018C0FC01FF2723E0F595E7952A95E1F729
S1131820EC0DFD1D208130E0AC014770552702C04E
S1131830359527954A95E2F720FDDACFB5010E9448
S11318401B0E811087CFE114F10411F0D7011C9213
S1131850C80115C0422F469546954695D601A40F5A
S1131860B11D422F47708B0102C0000F111F4A9512
S1131870E2F7A8015C91452B4C93622EA2CFA0966F
S1131880CDBFDEBFDF91CF911F910F91FF90EF90FD
S1131890DF90CF90BF90AF909F908F907F906F908C
S11318A05F9008955F926F927F928F929F92AF9212
S11318B0BF92CF92DF92EF92FF920F931F93CF9339
S11318C0DF936C01EB015A01FC0116821782512C43
S11318D0F601E380FE01E3FC8591E3FE8191182F7C
S11318E0EF01882309F4EEC090E00E94770D892B64
S11318F021F0C6010E94CC0AEBCF153241F4FE015F
S1131900E3FC1591E3FE1191EF01153281F4C60158
S11319100E94A10D97FDD4C0412F50E09C013327B4
S113192024173507A9F2B6010E941B0ECBC01A3248
S113193039F4E3FC1591E3FE1191EF0101E001C0DC
S113194000E0F12C20ED210F2A3080F402606F2D8D
S113195070E080E090E040E20E94A50AF62EFE01CD
S1131960E3FC1591E3FE1191EF01ECCF01FF03C0FD
S1131970F11003C0A7C0FF24FA94183619F01C36DE
S113198051F010C0FE01E3FC1591E3FE1191EF014B
S1131990183641F408600460FE01E3FC1591E3FE8F
S11319A01191EF01112309F48DC0612F70E084EFD0
S11319B090E00E94800D892B09F484C000FD07C0CB
S11319C0F50180809180C50102965C0102C0812CE2
S11319D0912C1E3651F4F6014681578160E070E087
S11319E0202FC4010E94990A73CF1336A9F401FD74
S11319F002C0FF24F394C6010E94A10D97FD60C0AC
S1131A008114910429F0F4018083C40101964C01EE
S1131A10FA94F110F0CF50C01B3559F49E01A40183
S1131A206F2DC6010E94770BEC01892B09F044C08D
S1131A303EC0C6010E94CC0A97FD42C01F3661F128
S1131A4028F4143639F1193651F128C0133771F0DE
S1131A50153701F123C08114910429F0F401608247
S1131A60C40101964C01FA94FF2071F0C6010E9452
S1131A70A10D3C0197FD08C00E94770D892B59F3F5
S1131A80B601C3010E941B0E81149104A9F0F40154
S1131A90108212C0006203C0006101C00064202FE4
S1131AA0A4016F2DC6010E94E50A811105C0F6014B
S1131AB08381807329F406C000FD0ACF539408CFB4
S1131AC0552019F0852D90E002C08FEF9FEFDF9134
S1131AD0CF911F910F91FF90EF90DF90CF90BF9027
S1131AE0AF909F908F907F906F905F900895911129
S1131AF00C94920E803219F089508550C8F70895DD
S1131B00FC010590061621F00020D9F7C0010895C4
S1131B103197CF010895FC01059061507040011088
S1131B20D8F7809590958E0F9F1F0895FC01615002
S1131B30704001900110D8F7809590958E0F9F1FEB
S1131B400895CF93DF93EC012B8120FF33C026FF50
S1131B500AC02F7B2B838E819F8101968E839F8366
S1131B608A8190E029C022FF0FC0E881F981808139
S1131B70082E000C990B009719F420622B831AC0CD
S1131B803196E883F9830EC0EA85FB85099597FFB2
S1131B9009C02B81019611F080E201C080E1822B03
S1131BA08B8308C02E813F812F5F3F4F2E833F835D
S1131BB0992702C08FEF9FEFDF91CF9108950F9384
S1131BC01F93CF93DF93FB01238121FD03C08FEF8C
S1131BD09FEF2CC022FF16C0468157812481358196
S1131BE04217530744F4A081B1819D012F5F3F4FF9
S1131BF0208331838C93268137812F5F3F4F268347
S1131C00378314C08B01EC01FB010084F185E02DC6
S1131C100995892BE1F6D80116968D919C91179719
S1131C20019616968D939C931797CE01DF91CF91D1
S1131C301F910F910895FB01238120FF12C026FDFF
S1131C4010C08F3F3FEF930761F082832F7D2064A4
S1131C5023832681378121503109268337839927AD
S1131C6008958FEF9FEF0895FA01AA27283051F1C4
S1131C70203181F1E8946F936E7F6E5F7F4F8F4FB9
S1131C809F4FAF4FB1E03ED0B4E03CD0670F781F18
S1131C90891F9A1FA11D680F791F8A1F911DA11DFD
S1131CA06A0F711D811D911DA11D20D009F4689436
S1131CB03F912AE0269F11243019305D3193DEF6DE
S1131CC0CF010895462F4770405D4193B3E00FD094
S1131CD0C9F7F6CF462F4F70405D4A3318F0495D7F
S1131CE031FD4052419302D0A9F7EACFB4E0A69562
S1131CF09795879577956795BA95C9F70097610584
S1131D00710508959B01AC010A2E069457954795D9
S1131D1037952795BA95C9F7620F731F841F951FCE
S1111D20A01D0895992788270895F894FFCFF1
S1131D2E0000AD41200000000003000000005B0332
S1131D3EC60300004D6F646520686173206265659B
S1131D4E6E206368616E67656420746F2025642E4F
S1131D5E200A00456E74657220612076616C696498
S1131D6E206B65792028772C612C732C6429200034
S1131D7E20256300696E76616C6964206368617204
S1131D8E616374657220666F72206D6F64652031B5
S1131D9E2E20506C6561736520656E7465722065C6
S1131DAE697468657220772C612C732C6420004E44
S1131DBE6577206672657175656E63793A20256460
S1131DCE200A0054776F206E756D626572732068F9
S1131DDE617665206265656E20656E7465726564F4
S1131DEE3A2025642C2025642E20506C6561736581
S1131DFE20686974207468652072657475726E202B
S1131E0E6B65792E200A00506C6561736520656ED2
S1131E1E7465722061206E756D62657220626566EE
S1131E2E6F7265207072657373696E672072657464
S1131E3E75726E2E20004672657175656E6379201B
S1131E4E63616E6E6F74206265207A65726F2E20E8
S1131E5E00696E76616C6964206368617261637493
S10F1E6E657220002A72696E672A0A005F
S9030000FC
